{
  "contractName": "CharityFactory",
  "abi": [
    {
      "anonymous": false,
      "inputs": [
        {
          "indexed": true,
          "internalType": "address",
          "name": "_from",
          "type": "address"
        },
        {
          "indexed": false,
          "internalType": "uint256",
          "name": "_value",
          "type": "uint256"
        },
        {
          "indexed": false,
          "internalType": "string",
          "name": "_currency",
          "type": "string"
        },
        {
          "indexed": true,
          "internalType": "address",
          "name": "_to",
          "type": "address"
        }
      ],
      "name": "Donation",
      "type": "event"
    },
    {
      "anonymous": false,
      "inputs": [
        {
          "indexed": true,
          "internalType": "address",
          "name": "organizationOwner",
          "type": "address"
        },
        {
          "indexed": false,
          "internalType": "address",
          "name": "organization",
          "type": "address"
        },
        {
          "indexed": false,
          "internalType": "uint256",
          "name": "count",
          "type": "uint256"
        }
      ],
      "name": "OrganizationCreated",
      "type": "event"
    },
    {
      "anonymous": false,
      "inputs": [
        {
          "indexed": true,
          "internalType": "address",
          "name": "previousOwner",
          "type": "address"
        },
        {
          "indexed": true,
          "internalType": "address",
          "name": "newOwner",
          "type": "address"
        }
      ],
      "name": "OwnershipTransferred",
      "type": "event"
    },
    {
      "anonymous": false,
      "inputs": [
        {
          "indexed": true,
          "internalType": "address",
          "name": "_to",
          "type": "address"
        },
        {
          "indexed": false,
          "internalType": "uint256",
          "name": "_value",
          "type": "uint256"
        },
        {
          "indexed": false,
          "internalType": "string",
          "name": "_currency",
          "type": "string"
        },
        {
          "indexed": true,
          "internalType": "address",
          "name": "_from",
          "type": "address"
        }
      ],
      "name": "Withdraw",
      "type": "event"
    },
    {
      "inputs": [
        {
          "internalType": "uint256",
          "name": "",
          "type": "uint256"
        }
      ],
      "name": "allOrganizations",
      "outputs": [
        {
          "internalType": "address",
          "name": "",
          "type": "address"
        }
      ],
      "stateMutability": "view",
      "type": "function",
      "constant": true
    },
    {
      "inputs": [],
      "name": "charityToken",
      "outputs": [
        {
          "internalType": "contract IERC20",
          "name": "",
          "type": "address"
        }
      ],
      "stateMutability": "view",
      "type": "function",
      "constant": true
    },
    {
      "inputs": [
        {
          "internalType": "address",
          "name": "",
          "type": "address"
        }
      ],
      "name": "getOrganization",
      "outputs": [
        {
          "internalType": "address",
          "name": "",
          "type": "address"
        }
      ],
      "stateMutability": "view",
      "type": "function",
      "constant": true
    },
    {
      "inputs": [
        {
          "internalType": "address",
          "name": "",
          "type": "address"
        }
      ],
      "name": "organizationEthBalance",
      "outputs": [
        {
          "internalType": "uint256",
          "name": "",
          "type": "uint256"
        }
      ],
      "stateMutability": "view",
      "type": "function",
      "constant": true
    },
    {
      "inputs": [
        {
          "internalType": "address",
          "name": "",
          "type": "address"
        }
      ],
      "name": "organizationTokenBalance",
      "outputs": [
        {
          "internalType": "uint256",
          "name": "",
          "type": "uint256"
        }
      ],
      "stateMutability": "view",
      "type": "function",
      "constant": true
    },
    {
      "inputs": [],
      "name": "owner",
      "outputs": [
        {
          "internalType": "address",
          "name": "",
          "type": "address"
        }
      ],
      "stateMutability": "view",
      "type": "function",
      "constant": true
    },
    {
      "inputs": [],
      "name": "renounceOwnership",
      "outputs": [],
      "stateMutability": "nonpayable",
      "type": "function"
    },
    {
      "inputs": [],
      "name": "totalEthDonations",
      "outputs": [
        {
          "internalType": "uint256",
          "name": "",
          "type": "uint256"
        }
      ],
      "stateMutability": "view",
      "type": "function",
      "constant": true
    },
    {
      "inputs": [],
      "name": "totalTokenDonations",
      "outputs": [
        {
          "internalType": "uint256",
          "name": "",
          "type": "uint256"
        }
      ],
      "stateMutability": "view",
      "type": "function",
      "constant": true
    },
    {
      "inputs": [
        {
          "internalType": "address",
          "name": "newOwner",
          "type": "address"
        }
      ],
      "name": "transferOwnership",
      "outputs": [],
      "stateMutability": "nonpayable",
      "type": "function"
    },
    {
      "stateMutability": "payable",
      "type": "receive",
      "payable": true
    },
    {
      "inputs": [
        {
          "internalType": "contract IERC20",
          "name": "_charityToken",
          "type": "address"
        }
      ],
      "name": "initialize",
      "outputs": [],
      "stateMutability": "nonpayable",
      "type": "function"
    },
    {
      "inputs": [
        {
          "internalType": "address payable",
          "name": "_orgOwner",
          "type": "address"
        },
        {
          "internalType": "string",
          "name": "_orgName",
          "type": "string"
        },
        {
          "internalType": "string",
          "name": "_orgDesc",
          "type": "string"
        }
      ],
      "name": "createOrganization",
      "outputs": [
        {
          "internalType": "address",
          "name": "",
          "type": "address"
        }
      ],
      "stateMutability": "nonpayable",
      "type": "function"
    },
    {
      "inputs": [],
      "name": "allOrganizationsLength",
      "outputs": [
        {
          "internalType": "uint256",
          "name": "",
          "type": "uint256"
        }
      ],
      "stateMutability": "view",
      "type": "function",
      "constant": true
    },
    {
      "inputs": [
        {
          "internalType": "string",
          "name": "_symbol",
          "type": "string"
        },
        {
          "internalType": "uint256",
          "name": "_amount",
          "type": "uint256"
        }
      ],
      "name": "donateTokens",
      "outputs": [],
      "stateMutability": "payable",
      "type": "function",
      "payable": true
    },
    {
      "inputs": [],
      "name": "ethBalance",
      "outputs": [
        {
          "internalType": "uint256",
          "name": "",
          "type": "uint256"
        }
      ],
      "stateMutability": "view",
      "type": "function",
      "constant": true
    },
    {
      "inputs": [
        {
          "internalType": "string",
          "name": "_symbol",
          "type": "string"
        }
      ],
      "name": "tokenBalance",
      "outputs": [
        {
          "internalType": "uint256",
          "name": "",
          "type": "uint256"
        }
      ],
      "stateMutability": "view",
      "type": "function",
      "constant": true
    },
    {
      "inputs": [
        {
          "internalType": "uint256",
          "name": "_amount",
          "type": "uint256"
        }
      ],
      "name": "withdrawEth",
      "outputs": [],
      "stateMutability": "payable",
      "type": "function",
      "payable": true
    },
    {
      "inputs": [
        {
          "internalType": "string",
          "name": "_symbol",
          "type": "string"
        },
        {
          "internalType": "uint256",
          "name": "_amount",
          "type": "uint256"
        }
      ],
      "name": "withdrawTokens",
      "outputs": [],
      "stateMutability": "payable",
      "type": "function",
      "payable": true
    }
  ],
  "bytecode": "0x608060405234801561001057600080fd5b5061301e806100206000396000f3fe608060405260043610620001225760003560e01c80637f13f8ed11620000a1578063c4d66de8116200006c578063c4d66de8146200039d578063d2c30a6d14620003c2578063d531bc7114620003fc578063d7352ed71462000413578063f2fde38b146200043857600080fd5b80637f13f8ed14620003295780638da5cb5b146200034e578063c1f8a298146200036e578063c311d049146200038657600080fd5b80634e6630b011620000ee5780634e6630b014620002975780634fec00ed14620002af57806354feb63a14620002c857806363cfa29f14620002f9578063715018a6146200031157600080fd5b8062600e1c14620001dc57806301225213146200021e5780631eb5bce4146200024057806326c7a697146200028057600080fd5b36620001d75760003411620001545760405162461bcd60e51b81526004016200014b9062001341565b60405180910390fd5b34606a6000828254620001689190620013b4565b90915550620001799050346200045d565b604051309033907fb76503dabe77ec8dae8f7481cb3a8ee59948da6c479122ce9c5deea1458e954c90620001cd90348152604060208201819052600590820152644d4154494360d81b606082015260800190565b60405180910390a3005b600080fd5b348015620001e957600080fd5b5062000201620001fb366004620013cf565b620004f1565b6040516001600160a01b0390911681526020015b60405180910390f35b3480156200022b57600080fd5b5060655462000201906001600160a01b031681565b3480156200024d57600080fd5b50620002716200025f366004620013ff565b60686020526000908152604090205481565b60405190815260200162000215565b3480156200028d57600080fd5b5060665462000271565b348015620002a457600080fd5b50620002716200051c565b620002c6620002c03660046200146b565b62000551565b005b348015620002d557600080fd5b5062000271620002e7366004620013ff565b60696020526000908152604090205481565b3480156200030657600080fd5b5062000271606a5481565b3480156200031e57600080fd5b50620002c6620007c6565b3480156200033657600080fd5b506200027162000348366004620014bb565b62000801565b3480156200035b57600080fd5b506033546001600160a01b031662000201565b3480156200037b57600080fd5b5062000271606b5481565b620002c662000397366004620013cf565b6200099c565b348015620003aa57600080fd5b50620002c6620003bc366004620013ff565b62000b0d565b348015620003cf57600080fd5b5062000201620003e1366004620013ff565b6067602052600090815260409020546001600160a01b031681565b620002c66200040d3660046200146b565b62000bf2565b3480156200042057600080fd5b50620002016200043236600462001501565b62000f6f565b3480156200044557600080fd5b50620002c662000457366004620013ff565b62001138565b60665460009062000470908390620011da565b905060005b606654811015620004ec578160686000606684815481106200049b576200049b6200158d565b60009182526020808320909101546001600160a01b0316835282019290925260400181208054909190620004d1908490620013b4565b90915550819050620004e381620015a3565b91505062000475565b505050565b606681815481106200050257600080fd5b6000918252602090912001546001600160a01b0316905081565b6033546000906001600160a01b031633146200054c5760405162461bcd60e51b81526004016200014b90620015c1565b504790565b8282606560009054906101000a90046001600160a01b03166001600160a01b03166395d89b416040518163ffffffff1660e01b8152600401600060405180830381865afa158015620005a7573d6000803e3d6000fd5b505050506040513d6000823e601f3d908101601f19168201604052620005d191908101906200163f565b604051602001620005e39190620016f8565b6040516020818303038152906040528051906020012082826040516020016200060e92919062001716565b6040516020818303038152906040528051906020012014620006445760405162461bcd60e51b81526004016200014b9062001726565b8260008111620006685760405162461bcd60e51b81526004016200014b9062001341565b6065546040516323b872dd60e01b8152336004820152306024820152604481018690526001600160a01b03909116906323b872dd906064016020604051808303816000875af1158015620006c0573d6000803e3d6000fd5b505050506040513d601f19601f82011682018060405250810190620006e691906200178f565b5083606b6000828254620006fb9190620013b4565b909155506200070c905084620011ef565b606554604080516395d89b4160e01b81529051309233927fb76503dabe77ec8dae8f7481cb3a8ee59948da6c479122ce9c5deea1458e954c9289926001600160a01b0316916395d89b419160048083019260009291908290030181865afa1580156200077c573d6000803e3d6000fd5b505050506040513d6000823e601f3d908101601f19168201604052620007a691908101906200163f565b604051620007b6929190620017b3565b60405180910390a3505050505050565b6033546001600160a01b03163314620007f35760405162461bcd60e51b81526004016200014b90620015c1565b620007ff60006200127e565b565b6033546000906001600160a01b03163314620008315760405162461bcd60e51b81526004016200014b90620015c1565b8282606560009054906101000a90046001600160a01b03166001600160a01b03166395d89b416040518163ffffffff1660e01b8152600401600060405180830381865afa15801562000887573d6000803e3d6000fd5b505050506040513d6000823e601f3d908101601f19168201604052620008b191908101906200163f565b604051602001620008c39190620016f8565b604051602081830303815290604052805190602001208282604051602001620008ee92919062001716565b6040516020818303038152906040528051906020012014620009245760405162461bcd60e51b81526004016200014b9062001726565b6065546040516370a0823160e01b81523060048201526001600160a01b03909116906370a0823190602401602060405180830381865afa1580156200096d573d6000803e3d6000fd5b505050506040513d601f19601f82011682018060405250810190620009939190620017ef565b95945050505050565b336000818152606760205260409020546001600160a01b0316620009d45760405162461bcd60e51b81526004016200014b9062001809565b8160008111620009f85760405162461bcd60e51b81526004016200014b9062001341565b8247101562000a0657600080fd5b336000908152606760209081526040808320546001600160a01b0316835260689091529020548381101562000a3a57600080fd5b336000908152606760209081526040808320546001600160a01b0316835260689091528120805486929062000a7190849062001850565b9091555050604051339085156108fc029086906000818181858888f1935050505015801562000aa4573d6000803e3d6000fd5b5030336001600160a01b03167f812cda5ff02ef2f21938f53f6e5486aa426eb53ca9cba46403ff8da50af101f78660405162000aff918152604060208201819052600590820152644d4154494360d81b606082015260800190565b60405180910390a350505050565b600054610100900460ff1662000b2a5760005460ff161562000b2e565b303b155b62000b935760405162461bcd60e51b815260206004820152602e60248201527f496e697469616c697a61626c653a20636f6e747261637420697320616c72656160448201526d191e481a5b9a5d1a585b1a5e995960921b60648201526084016200014b565b600054610100900460ff1615801562000bb6576000805461ffff19166101011790555b62000bc0620012d0565b606580546001600160a01b0319166001600160a01b038416179055801562000bee576000805461ff00191690555b5050565b336000818152606760205260409020546001600160a01b031662000c2a5760405162461bcd60e51b81526004016200014b9062001809565b8383606560009054906101000a90046001600160a01b03166001600160a01b03166395d89b416040518163ffffffff1660e01b8152600401600060405180830381865afa15801562000c80573d6000803e3d6000fd5b505050506040513d6000823e601f3d908101601f1916820160405262000caa91908101906200163f565b60405160200162000cbc9190620016f8565b60405160208183030381529060405280519060200120828260405160200162000ce792919062001716565b604051602081830303815290604052805190602001201462000d1d5760405162461bcd60e51b81526004016200014b9062001726565b836000811162000d415760405162461bcd60e51b81526004016200014b9062001341565b6065546040516370a0823160e01b815230600482015286916001600160a01b0316906370a0823190602401602060405180830381865afa15801562000d8a573d6000803e3d6000fd5b505050506040513d601f19601f8201168201806040525081019062000db09190620017ef565b101562000dbc57600080fd5b336000908152606760209081526040808320546001600160a01b0316835260699091529020548581101562000df057600080fd5b336000908152606760209081526040808320546001600160a01b0316835260699091528120805488929062000e2790849062001850565b90915550506065546001600160a01b031663a9059cbb336040516001600160e01b031960e084901b1681526001600160a01b039091166004820152602481018990526044016020604051808303816000875af115801562000e8c573d6000803e3d6000fd5b505050506040513d601f19601f8201168201806040525081019062000eb291906200178f565b50606554604080516395d89b4160e01b81529051309233927f812cda5ff02ef2f21938f53f6e5486aa426eb53ca9cba46403ff8da50af101f7928b926001600160a01b0316916395d89b419160048083019260009291908290030181865afa15801562000f23573d6000803e3d6000fd5b505050506040513d6000823e601f3d908101601f1916820160405262000f4d91908101906200163f565b60405162000f5d929190620017b3565b60405180910390a35050505050505050565b6033546000906001600160a01b0316331462000f9f5760405162461bcd60e51b81526004016200014b90620015c1565b6001600160a01b038681166000908152606760205260409020541615620010155760405162461bcd60e51b815260206004820152602360248201527f43686172697479466163746f72793a204f5247414e495a4154494f4e5f45584960448201526253545360e81b60648201526084016200014b565b6000606560009054906101000a90046001600160a01b03168787878787604051620010409062001333565b620010519695949392919062001893565b604051809103906000f0801580156200106e573d6000803e3d6000fd5b506001600160a01b03888116600081815260676020908152604080832080546001600160a01b0319908116968816968717909155858452606883528184208490556069835281842084905560668054600181018255948190527f46501879b8ca8525e8c2fd519e2fbfcfa2ebea26501294aa02cbfcfb12e943549094018054909116861790559154825194855290840152929350917faeb341fc6082ea3d3e9e1b24b0c61bce0f8d5aba8415132792908aff979d48d5910160405180910390a29695505050505050565b6033546001600160a01b03163314620011655760405162461bcd60e51b81526004016200014b90620015c1565b6001600160a01b038116620011cc5760405162461bcd60e51b815260206004820152602660248201527f4f776e61626c653a206e6577206f776e657220697320746865207a65726f206160448201526564647265737360d01b60648201526084016200014b565b620011d7816200127e565b50565b6000620011e88284620018e4565b9392505050565b60665460009062001202908390620011da565b905060005b606654811015620004ec578160696000606684815481106200122d576200122d6200158d565b60009182526020808320909101546001600160a01b031683528201929092526040018120805490919062001263908490620013b4565b909155508190506200127581620015a3565b91505062001207565b603380546001600160a01b038381166001600160a01b0319831681179093556040519116919082907f8be0079c531659141344cd1fd0a4f28419497f9722a3daafe3b4186f6b6457e090600090a35050565b600054610100900460ff16620012fa5760405162461bcd60e51b81526004016200014b9062001907565b620007ff600054610100900460ff16620013285760405162461bcd60e51b81526004016200014b9062001907565b620007ff336200127e565b611696806200195383390190565b60208082526039908201527f43686172697479466163746f72793a205472616e7366657220616d6f756e742060408201527f68617320746f2062652067726561746572207468616e20302e00000000000000606082015260800190565b634e487b7160e01b600052601160045260246000fd5b60008219821115620013ca57620013ca6200139e565b500190565b600060208284031215620013e257600080fd5b5035919050565b6001600160a01b0381168114620011d757600080fd5b6000602082840312156200141257600080fd5b8135620011e881620013e9565b60008083601f8401126200143257600080fd5b50813567ffffffffffffffff8111156200144b57600080fd5b6020830191508360208285010111156200146457600080fd5b9250929050565b6000806000604084860312156200148157600080fd5b833567ffffffffffffffff8111156200149957600080fd5b620014a7868287016200141f565b909790965060209590950135949350505050565b60008060208385031215620014cf57600080fd5b823567ffffffffffffffff811115620014e757600080fd5b620014f5858286016200141f565b90969095509350505050565b6000806000806000606086880312156200151a57600080fd5b85356200152781620013e9565b9450602086013567ffffffffffffffff808211156200154557600080fd5b6200155389838a016200141f565b909650945060408801359150808211156200156d57600080fd5b506200157c888289016200141f565b969995985093965092949392505050565b634e487b7160e01b600052603260045260246000fd5b6000600019821415620015ba57620015ba6200139e565b5060010190565b6020808252818101527f4f776e61626c653a2063616c6c6572206973206e6f7420746865206f776e6572604082015260600190565b634e487b7160e01b600052604160045260246000fd5b60005b83811015620016295781810151838201526020016200160f565b8381111562001639576000848401525b50505050565b6000602082840312156200165257600080fd5b815167ffffffffffffffff808211156200166b57600080fd5b818401915084601f8301126200168057600080fd5b815181811115620016955762001695620015f6565b604051601f8201601f19908116603f01168101908382118183101715620016c057620016c0620015f6565b81604052828152876020848701011115620016da57600080fd5b620016ed8360208301602088016200160c565b979650505050505050565b600082516200170c8184602087016200160c565b9190910192915050565b8183823760009101908152919050565b60208082526043908201527f43686172697479466163746f72793a204f6e6c792043686172697479546f6b6560408201527f6e20697320616c6c6f77656420666f72204552433230207472616e73616369746060820152626f6e7360e81b608082015260a00190565b600060208284031215620017a257600080fd5b81518015158114620011e857600080fd5b8281526040602082015260008251806040840152620017da8160608501602087016200160c565b601f01601f1916919091016060019392505050565b6000602082840312156200180257600080fd5b5051919050565b60208082526027908201527f43686172697479466163746f72793a204f7267616e697a6174696f6e206e6f74604082015266103337bab7321760c91b606082015260800190565b6000828210156200186557620018656200139e565b500390565b81835281816020850137506000828201602090810191909152601f909101601f19169091010190565b6001600160a01b03878116825286166020820152608060408201819052600090620018c290830186886200186a565b8281036060840152620018d78185876200186a565b9998505050505050505050565b6000826200190257634e487b7160e01b600052601260045260246000fd5b500490565b6020808252602b908201527f496e697469616c697a61626c653a20636f6e7472616374206973206e6f74206960408201526a6e697469616c697a696e6760a81b60608201526080019056fe60806040523480156200001157600080fd5b50604051620016963803806200169683398101604081905262000034916200051c565b600054610100900460ff16620000515760005460ff16156200005b565b6200005b62000179565b620000c45760405162461bcd60e51b815260206004820152602e60248201527f496e697469616c697a61626c653a20636f6e747261637420697320616c72656160448201526d191e481a5b9a5d1a585b1a5e995960921b60648201526084015b60405180910390fd5b600054610100900460ff16158015620000e7576000805461ffff19166101011790555b620000f162000197565b620000fc84620001ff565b60668054336001600160a01b031991821617909155606580549091166001600160a01b03871617905582516200013a90606790602086019062000393565b5081516200015090606890602085019062000393565b5060006069819055606a5580156200016e576000805461ff00191690555b5050505050620005ee565b60006200019130620002d060201b62000bad1760201c565b15905090565b600054610100900460ff16620001f35760405162461bcd60e51b815260206004820152602b60248201526000805160206200167683398151915260448201526a6e697469616c697a696e6760a81b6064820152608401620000bb565b620001fd620002df565b565b6033546001600160a01b031633146200025b5760405162461bcd60e51b815260206004820181905260248201527f4f776e61626c653a2063616c6c6572206973206e6f7420746865206f776e65726044820152606401620000bb565b6001600160a01b038116620002c25760405162461bcd60e51b815260206004820152602660248201527f4f776e61626c653a206e6577206f776e657220697320746865207a65726f206160448201526564647265737360d01b6064820152608401620000bb565b620002cd8162000341565b50565b6001600160a01b03163b151590565b600054610100900460ff166200033b5760405162461bcd60e51b815260206004820152602b60248201526000805160206200167683398151915260448201526a6e697469616c697a696e6760a81b6064820152608401620000bb565b620001fd335b603380546001600160a01b038381166001600160a01b0319831681179093556040519116919082907f8be0079c531659141344cd1fd0a4f28419497f9722a3daafe3b4186f6b6457e090600090a35050565b828054620003a190620005b1565b90600052602060002090601f016020900481019282620003c5576000855562000410565b82601f10620003e057805160ff191683800117855562000410565b8280016001018555821562000410579182015b8281111562000410578251825591602001919060010190620003f3565b506200041e92915062000422565b5090565b5b808211156200041e576000815560010162000423565b6001600160a01b0381168114620002cd57600080fd5b634e487b7160e01b600052604160045260246000fd5b600082601f8301126200047757600080fd5b81516001600160401b03808211156200049457620004946200044f565b604051601f8301601f19908116603f01168101908282118183101715620004bf57620004bf6200044f565b81604052838152602092508683858801011115620004dc57600080fd5b600091505b83821015620005005785820183015181830184015290820190620004e1565b83821115620005125760008385830101525b9695505050505050565b600080600080608085870312156200053357600080fd5b8451620005408162000439565b6020860151909450620005538162000439565b60408601519093506001600160401b03808211156200057157600080fd5b6200057f8883890162000465565b935060608701519150808211156200059657600080fd5b50620005a58782880162000465565b91505092959194509250565b600181811c90821680620005c657607f821691505b60208210811415620005e857634e487b7160e01b600052602260045260246000fd5b50919050565b61107880620005fe6000396000f3fe6080604052600436106100e15760003560e01c80637284e4161161007f578063c311d04911610059578063c311d049146102b1578063c45a0155146102c4578063d531bc71146102e4578063f2fde38b146102f757600080fd5b80637284e416146102685780638da5cb5b1461027d578063c1f8a2981461029b57600080fd5b80634fec00ed116100bb5780634fec00ed146102085780635d28f1e51461021d57806363cfa29f1461023d578063715018a61461025357600080fd5b8063012252131461018657806306fdde03146101c35780634e6630b0146101e557600080fd5b36610181576000341161010f5760405162461bcd60e51b815260040161010690610c0e565b60405180910390fd5b34606960008282546101219190610c6b565b9091555050604051309033907fb76503dabe77ec8dae8f7481cb3a8ee59948da6c479122ce9c5deea1458e954c90610177903481526040602082018190526003908201526208aa8960eb1b606082015260800190565b60405180910390a3005b600080fd5b34801561019257600080fd5b506065546101a6906001600160a01b031681565b6040516001600160a01b0390911681526020015b60405180910390f35b3480156101cf57600080fd5b506101d8610317565b6040516101ba9190610ced565b3480156101f157600080fd5b506101fa6103a5565b6040519081526020016101ba565b61021b610216366004610d50565b6103d7565b005b34801561022957600080fd5b506101fa610238366004610d9c565b610629565b34801561024957600080fd5b506101fa60695481565b34801561025f57600080fd5b5061021b6107b4565b34801561027457600080fd5b506101d86107ea565b34801561028957600080fd5b506033546001600160a01b03166101a6565b3480156102a757600080fd5b506101fa606a5481565b61021b6102bf366004610dde565b6107f7565b3480156102d057600080fd5b506066546101a6906001600160a01b031681565b61021b6102f2366004610d50565b6108da565b34801561030357600080fd5b5061021b610312366004610df7565b610b12565b6067805461032490610e20565b80601f016020809104026020016040519081016040528092919081815260200182805461035090610e20565b801561039d5780601f106103725761010080835404028352916020019161039d565b820191906000526020600020905b81548152906001019060200180831161038057829003601f168201915b505050505081565b6033546000906001600160a01b031633146103d25760405162461bcd60e51b815260040161010690610e5b565b504790565b8282606560009054906101000a90046001600160a01b03166001600160a01b03166395d89b416040518163ffffffff1660e01b8152600401600060405180830381865afa15801561042c573d6000803e3d6000fd5b505050506040513d6000823e601f3d908101601f191682016040526104549190810190610ea6565b6040516020016104649190610f53565b60405160208183030381529060405280519060200120828260405160200161048d929190610f6f565b60405160208183030381529060405280519060200120146104c05760405162461bcd60e51b815260040161010690610f7f565b82600081116104e15760405162461bcd60e51b815260040161010690610c0e565b6065546040516323b872dd60e01b8152336004820152306024820152604481018690526001600160a01b03909116906323b872dd906064016020604051808303816000875af1158015610538573d6000803e3d6000fd5b505050506040513d601f19601f8201168201806040525081019061055c9190610fe6565b5083606a600082825461056f9190610c6b565b9091555050606554604080516395d89b4160e01b81529051309233927fb76503dabe77ec8dae8f7481cb3a8ee59948da6c479122ce9c5deea1458e954c9289926001600160a01b0316916395d89b419160048083019260009291908290030181865afa1580156105e3573d6000803e3d6000fd5b505050506040513d6000823e601f3d908101601f1916820160405261060b9190810190610ea6565b604051610619929190611008565b60405180910390a3505050505050565b6033546000906001600160a01b031633146106565760405162461bcd60e51b815260040161010690610e5b565b8282606560009054906101000a90046001600160a01b03166001600160a01b03166395d89b416040518163ffffffff1660e01b8152600401600060405180830381865afa1580156106ab573d6000803e3d6000fd5b505050506040513d6000823e601f3d908101601f191682016040526106d39190810190610ea6565b6040516020016106e39190610f53565b60405160208183030381529060405280519060200120828260405160200161070c929190610f6f565b604051602081830303815290604052805190602001201461073f5760405162461bcd60e51b815260040161010690610f7f565b6065546040516370a0823160e01b81523060048201526001600160a01b03909116906370a0823190602401602060405180830381865afa158015610787573d6000803e3d6000fd5b505050506040513d601f19601f820116820180604052508101906107ab9190611029565b95945050505050565b6033546001600160a01b031633146107de5760405162461bcd60e51b815260040161010690610e5b565b6107e86000610bbc565b565b6068805461032490610e20565b6033546001600160a01b031633146108215760405162461bcd60e51b815260040161010690610e5b565b80600081116108425760405162461bcd60e51b815260040161010690610c0e565b6033546040516001600160a01b039091169083156108fc029084906000818181858888f1935050505015801561087c573d6000803e3d6000fd5b50604051309033907f812cda5ff02ef2f21938f53f6e5486aa426eb53ca9cba46403ff8da50af101f7906108ce908681526040602082018190526003908201526208aa8960eb1b606082015260800190565b60405180910390a35050565b6033546001600160a01b031633146109045760405162461bcd60e51b815260040161010690610e5b565b8282606560009054906101000a90046001600160a01b03166001600160a01b03166395d89b416040518163ffffffff1660e01b8152600401600060405180830381865afa158015610959573d6000803e3d6000fd5b505050506040513d6000823e601f3d908101601f191682016040526109819190810190610ea6565b6040516020016109919190610f53565b6040516020818303038152906040528051906020012082826040516020016109ba929190610f6f565b60405160208183030381529060405280519060200120146109ed5760405162461bcd60e51b815260040161010690610f7f565b8260008111610a0e5760405162461bcd60e51b815260040161010690610c0e565b6065546001600160a01b031663a9059cbb610a316033546001600160a01b031690565b6040516001600160e01b031960e084901b1681526001600160a01b039091166004820152602481018790526044016020604051808303816000875af1158015610a7e573d6000803e3d6000fd5b505050506040513d601f19601f82011682018060405250810190610aa29190610fe6565b50606554604080516395d89b4160e01b81529051309233927f812cda5ff02ef2f21938f53f6e5486aa426eb53ca9cba46403ff8da50af101f79289926001600160a01b0316916395d89b419160048083019260009291908290030181865afa1580156105e3573d6000803e3d6000fd5b6033546001600160a01b03163314610b3c5760405162461bcd60e51b815260040161010690610e5b565b6001600160a01b038116610ba15760405162461bcd60e51b815260206004820152602660248201527f4f776e61626c653a206e6577206f776e657220697320746865207a65726f206160448201526564647265737360d01b6064820152608401610106565b610baa81610bbc565b50565b6001600160a01b03163b151590565b603380546001600160a01b038381166001600160a01b0319831681179093556040519116919082907f8be0079c531659141344cd1fd0a4f28419497f9722a3daafe3b4186f6b6457e090600090a35050565b60208082526037908201527f4f7267616e697a6174696f6e3a205472616e7366657220616d6f756e7420686160408201527f7320746f2062652067726561746572207468616e20302e000000000000000000606082015260800190565b60008219821115610c8c57634e487b7160e01b600052601160045260246000fd5b500190565b60005b83811015610cac578181015183820152602001610c94565b83811115610cbb576000848401525b50505050565b60008151808452610cd9816020860160208601610c91565b601f01601f19169290920160200192915050565b602081526000610d006020830184610cc1565b9392505050565b60008083601f840112610d1957600080fd5b50813567ffffffffffffffff811115610d3157600080fd5b602083019150836020828501011115610d4957600080fd5b9250929050565b600080600060408486031215610d6557600080fd5b833567ffffffffffffffff811115610d7c57600080fd5b610d8886828701610d07565b909790965060209590950135949350505050565b60008060208385031215610daf57600080fd5b823567ffffffffffffffff811115610dc657600080fd5b610dd285828601610d07565b90969095509350505050565b600060208284031215610df057600080fd5b5035919050565b600060208284031215610e0957600080fd5b81356001600160a01b0381168114610d0057600080fd5b600181811c90821680610e3457607f821691505b60208210811415610e5557634e487b7160e01b600052602260045260246000fd5b50919050565b6020808252818101527f4f776e61626c653a2063616c6c6572206973206e6f7420746865206f776e6572604082015260600190565b634e487b7160e01b600052604160045260246000fd5b600060208284031215610eb857600080fd5b815167ffffffffffffffff80821115610ed057600080fd5b818401915084601f830112610ee457600080fd5b815181811115610ef657610ef6610e90565b604051601f8201601f19908116603f01168101908382118183101715610f1e57610f1e610e90565b81604052828152876020848701011115610f3757600080fd5b610f48836020830160208801610c91565b979650505050505050565b60008251610f65818460208701610c91565b9190910192915050565b8183823760009101908152919050565b60208082526041908201527f4f7267616e697a6174696f6e3a204f6e6c792043686172697479546f6b656e2060408201527f697320616c6c6f77656420666f72204552433230207472616e73616369746f6e6060820152607360f81b608082015260a00190565b600060208284031215610ff857600080fd5b81518015158114610d0057600080fd5b8281526040602082015260006110216040830184610cc1565b949350505050565b60006020828403121561103b57600080fd5b505191905056fea26469706673582212200aed042120c9c389f24d691d0eb05d64263608df106dfc7f1ff7f0f221367ec364736f6c634300080c0033496e697469616c697a61626c653a20636f6e7472616374206973206e6f742069a2646970667358221220da863ff96cc5282b35bc93e4ffed2779e9ad2db652eac537669d1a07a124f4f864736f6c634300080c0033",
  "immutableReferences": {},
  "source": "// SPDX-License-Identifier: MIT\n\npragma solidity ^0.8.12;\n\nimport \"@openzeppelin/contracts-upgradeable/utils/math/SafeMathUpgradeable.sol\";\nimport \"@openzeppelin/contracts-upgradeable/utils/ContextUpgradeable.sol\";\nimport \"@openzeppelin/contracts-upgradeable/access/OwnableUpgradeable.sol\";\nimport \"@openzeppelin/contracts-upgradeable/proxy/utils/Initializable.sol\";\nimport \"./interfaces/ICharityFactory.sol\";\nimport \"./Organization.sol\";\n\ncontract CharityFactory is Initializable, ContextUpgradeable, ICharityFactory, OwnableUpgradeable {\n    using SafeMathUpgradeable for uint256;\n\n    IERC20 public charityToken;\n\n    address[] public allOrganizations;\n    mapping(address => address) public getOrganization;\n    mapping(address => uint256) public organizationEthBalance;\n    mapping(address => uint256) public organizationTokenBalance;\n\n    uint256 public totalEthDonations;\n    uint256 public totalTokenDonations;\n\n    modifier validateSymbol(string calldata _symbol) {\n        require(\n            keccak256(abi.encodePacked(_symbol)) == keccak256(abi.encodePacked(charityToken.symbol())),\n            \"CharityFactory: Only CharityToken is allowed for ERC20 transacitons\"\n        );\n        _;\n    }\n\n    modifier validateEthAmount() {\n        require(msg.value > 0, \"CharityFactory: Transfer amount has to be greater than 0.\");\n        _;\n    }\n\n    modifier validateAmount(uint256 _amount) {\n        require(_amount > 0, \"CharityFactory: Transfer amount has to be greater than 0.\");\n        _;\n    }\n\n    modifier validateOrganization(address _organizationOwner) {\n        require(getOrganization[_organizationOwner] != address(0), \"CharityFactory: Organization not found.\");\n        _;\n    }\n\n    function initialize(IERC20 _charityToken) public initializer {\n        __Ownable_init();\n        charityToken = _charityToken;\n    }\n\n    function createOrganization(\n        address payable _orgOwner,\n        string calldata _orgName,\n        string calldata _orgDesc\n    ) external onlyOwner returns (address) {\n        require(getOrganization[_orgOwner] == address(0), \"CharityFactory: ORGANIZATION_EXISTS\");\n\n        Organization organization = new Organization(charityToken, _orgOwner, _orgName, _orgDesc);\n\n        // bytes memory bytecode = type(Organization).creationCode;\n        // bytes32 salt = keccak256(abi.encodePacked(charityToken, _orgOwner, _orgName, _orgDesc));\n\n        // assembly {\n        //     organization := create2(0, add(bytecode, 0x20), mload(bytecode), salt)\n        //     if iszero(extcodesize(organization)) {\n        //         revert(0, 0)\n        //     }\n        // }\n\n        //IOrganization(organization).initialize(address(charityToken), _orgOwner, _orgName, _orgDesc);\n\n        getOrganization[_orgOwner] = address(organization);\n        organizationEthBalance[address(organization)] = 0;\n        organizationTokenBalance[address(organization)] = 0;\n        allOrganizations.push(address(organization));\n\n        emit OrganizationCreated(_orgOwner, address(organization), allOrganizations.length);\n\n        return address(organization);\n    }\n\n    function allOrganizationsLength() external view returns (uint256) {\n        return allOrganizations.length;\n    }\n\n    receive() external payable validateEthAmount {\n        totalEthDonations += msg.value;\n        _updateEthBalances(msg.value);\n        emit Donation(msg.sender, msg.value, \"MATIC\", address(this));\n    }\n\n    function donateTokens(string calldata _symbol, uint256 _amount)\n        external\n        payable\n        validateSymbol(_symbol)\n        validateAmount(_amount)\n    {\n        charityToken.transferFrom(msg.sender, address(this), _amount);\n        totalTokenDonations += _amount;\n        _updateTokenBalances(_amount);\n        emit Donation(msg.sender, _amount, charityToken.symbol(), address(this));\n    }\n\n    function _updateEthBalances(uint256 _amount) internal {\n        uint256 _organizationAmount = _amount.div(allOrganizations.length);\n        for (uint256 i = 0; i < allOrganizations.length; i++) {\n            organizationEthBalance[allOrganizations[i]] += _organizationAmount;\n        }\n    }\n\n    function _updateTokenBalances(uint256 _amount) internal {\n        uint256 _organizationAmount = _amount.div(allOrganizations.length);\n        for (uint256 i = 0; i < allOrganizations.length; i++) {\n            organizationTokenBalance[allOrganizations[i]] += _organizationAmount;\n        }\n    }\n\n    function ethBalance() external view onlyOwner returns (uint256) {\n        return address(this).balance;\n    }\n\n    function tokenBalance(string calldata _symbol) external view onlyOwner validateSymbol(_symbol) returns (uint256) {\n        return charityToken.balanceOf(address(this));\n    }\n\n    function withdrawEth(uint256 _amount) external payable validateOrganization(_msgSender()) validateAmount(_amount) {\n        require(address(this).balance >= _amount);\n\n        uint256 balance = organizationEthBalance[getOrganization[_msgSender()]];\n        require(balance >= _amount);\n\n        organizationEthBalance[getOrganization[_msgSender()]] -= _amount;\n        payable(_msgSender()).transfer(_amount);\n        emit Withdraw(_msgSender(), _amount, \"MATIC\", address(this));\n    }\n\n    function withdrawTokens(string calldata _symbol, uint256 _amount)\n        external\n        payable\n        validateOrganization(_msgSender())\n        validateSymbol(_symbol)\n        validateAmount(_amount)\n    {\n        require(charityToken.balanceOf(address(this)) >= _amount);\n\n        uint256 balance = organizationTokenBalance[getOrganization[_msgSender()]];\n        require(balance >= _amount);\n\n        organizationTokenBalance[getOrganization[_msgSender()]] -= _amount;\n        charityToken.transfer(_msgSender(), _amount);\n        emit Withdraw(_msgSender(), _amount, charityToken.symbol(), address(this));\n    }\n}\n",
  "sourcePath": "/home/dev/Desktop/projects/truffle/charity/contracts/CharityFactory.sol",
  "compiler": {
    "name": "solc",
    "version": "0.8.12+commit.f00d7308.Emscripten.clang"
  },
  "schemaVersion": "3.4.5",
  "updatedAt": "2022-05-17T16:50:49.837Z",
  "networkType": "ethereum",
  "devdoc": {
    "kind": "dev",
    "methods": {
      "owner()": {
        "details": "Returns the address of the current owner."
      },
      "renounceOwnership()": {
        "details": "Leaves the contract without owner. It will not be possible to call `onlyOwner` functions anymore. Can only be called by the current owner. NOTE: Renouncing ownership will leave the contract without an owner, thereby removing any functionality that is only available to the owner."
      },
      "transferOwnership(address)": {
        "details": "Transfers ownership of the contract to a new account (`newOwner`). Can only be called by the current owner."
      }
    },
    "version": 1
  },
  "userdoc": {
    "kind": "user",
    "methods": {},
    "version": 1
  }
}