{
  "contractName": "Locker",
  "abi": [
    {
      "anonymous": false,
      "inputs": [
        {
          "indexed": true,
          "internalType": "address",
          "name": "tokenAddress",
          "type": "address"
        },
        {
          "indexed": true,
          "internalType": "address",
          "name": "receiver",
          "type": "address"
        },
        {
          "indexed": false,
          "internalType": "uint256",
          "name": "amount",
          "type": "uint256"
        }
      ],
      "name": "EmergencyTokensWithdrawn",
      "type": "event"
    },
    {
      "anonymous": false,
      "inputs": [
        {
          "indexed": true,
          "internalType": "address",
          "name": "previousOwner",
          "type": "address"
        },
        {
          "indexed": true,
          "internalType": "address",
          "name": "newOwner",
          "type": "address"
        }
      ],
      "name": "OwnershipTransferred",
      "type": "event"
    },
    {
      "anonymous": false,
      "inputs": [
        {
          "indexed": true,
          "internalType": "uint256",
          "name": "id",
          "type": "uint256"
        },
        {
          "indexed": false,
          "internalType": "uint256",
          "name": "unlockeTime",
          "type": "uint256"
        }
      ],
      "name": "Renewed",
      "type": "event"
    },
    {
      "anonymous": false,
      "inputs": [
        {
          "indexed": true,
          "internalType": "address",
          "name": "tokenAddress",
          "type": "address"
        },
        {
          "indexed": true,
          "internalType": "address",
          "name": "sender",
          "type": "address"
        },
        {
          "indexed": false,
          "internalType": "uint256",
          "name": "amount",
          "type": "uint256"
        },
        {
          "indexed": false,
          "internalType": "uint256",
          "name": "unlockTime",
          "type": "uint256"
        },
        {
          "indexed": false,
          "internalType": "uint256",
          "name": "depositId",
          "type": "uint256"
        }
      ],
      "name": "TokensLocked",
      "type": "event"
    },
    {
      "anonymous": false,
      "inputs": [
        {
          "indexed": true,
          "internalType": "address",
          "name": "tokenAddress",
          "type": "address"
        },
        {
          "indexed": true,
          "internalType": "address",
          "name": "receiver",
          "type": "address"
        },
        {
          "indexed": false,
          "internalType": "uint256",
          "name": "amount",
          "type": "uint256"
        }
      ],
      "name": "TokensWithdrawn",
      "type": "event"
    },
    {
      "anonymous": false,
      "inputs": [
        {
          "indexed": true,
          "internalType": "address",
          "name": "token",
          "type": "address"
        },
        {
          "indexed": true,
          "internalType": "address",
          "name": "receiver",
          "type": "address"
        },
        {
          "indexed": false,
          "internalType": "uint256",
          "name": "amount",
          "type": "uint256"
        }
      ],
      "name": "WithdrawSpecificToken",
      "type": "event"
    },
    {
      "inputs": [],
      "name": "owner",
      "outputs": [
        {
          "internalType": "address",
          "name": "",
          "type": "address"
        }
      ],
      "stateMutability": "view",
      "type": "function",
      "constant": true
    },
    {
      "inputs": [],
      "name": "renounceOwnership",
      "outputs": [],
      "stateMutability": "nonpayable",
      "type": "function"
    },
    {
      "inputs": [
        {
          "internalType": "address",
          "name": "newOwner",
          "type": "address"
        }
      ],
      "name": "transferOwnership",
      "outputs": [],
      "stateMutability": "nonpayable",
      "type": "function"
    },
    {
      "inputs": [
        {
          "internalType": "address",
          "name": "_tokenAddress",
          "type": "address"
        },
        {
          "internalType": "uint256",
          "name": "_amount",
          "type": "uint256"
        },
        {
          "internalType": "address",
          "name": "_withdrawalAddress",
          "type": "address"
        },
        {
          "internalType": "uint256",
          "name": "_unlockTime",
          "type": "uint256"
        }
      ],
      "name": "lockTokens",
      "outputs": [],
      "stateMutability": "nonpayable",
      "type": "function"
    },
    {
      "inputs": [
        {
          "internalType": "address",
          "name": "_tokenAddress",
          "type": "address"
        },
        {
          "internalType": "uint256[]",
          "name": "_amounts",
          "type": "uint256[]"
        },
        {
          "internalType": "address[]",
          "name": "_withdrawalAddresses",
          "type": "address[]"
        },
        {
          "internalType": "uint256[]",
          "name": "_unlockTimes",
          "type": "uint256[]"
        }
      ],
      "name": "lockTokenMultiple",
      "outputs": [],
      "stateMutability": "nonpayable",
      "type": "function"
    },
    {
      "inputs": [
        {
          "internalType": "uint256",
          "name": "_id",
          "type": "uint256"
        },
        {
          "internalType": "address",
          "name": "_receiver",
          "type": "address"
        }
      ],
      "name": "emergencyWithdrawTokens",
      "outputs": [],
      "stateMutability": "nonpayable",
      "type": "function"
    },
    {
      "inputs": [
        {
          "internalType": "uint256",
          "name": "_id",
          "type": "uint256"
        },
        {
          "internalType": "uint256",
          "name": "_unlockTime",
          "type": "uint256"
        }
      ],
      "name": "renewLock",
      "outputs": [],
      "stateMutability": "nonpayable",
      "type": "function"
    },
    {
      "inputs": [
        {
          "internalType": "uint256",
          "name": "_id",
          "type": "uint256"
        }
      ],
      "name": "withdrawDeposit",
      "outputs": [],
      "stateMutability": "nonpayable",
      "type": "function"
    },
    {
      "inputs": [
        {
          "internalType": "address",
          "name": "token",
          "type": "address"
        },
        {
          "internalType": "address",
          "name": "receiver",
          "type": "address"
        },
        {
          "internalType": "uint256",
          "name": "amount",
          "type": "uint256"
        }
      ],
      "name": "withdrawSpecificDeposit",
      "outputs": [],
      "stateMutability": "nonpayable",
      "type": "function"
    },
    {
      "inputs": [
        {
          "internalType": "address",
          "name": "_tokenAddress",
          "type": "address"
        }
      ],
      "name": "getTotalTokenBalance",
      "outputs": [
        {
          "internalType": "uint256",
          "name": "",
          "type": "uint256"
        }
      ],
      "stateMutability": "view",
      "type": "function",
      "constant": true
    },
    {
      "inputs": [
        {
          "internalType": "address",
          "name": "_tokenAddress",
          "type": "address"
        },
        {
          "internalType": "address",
          "name": "_walletAddress",
          "type": "address"
        }
      ],
      "name": "getTokenBalanceByAddress",
      "outputs": [
        {
          "internalType": "uint256",
          "name": "",
          "type": "uint256"
        }
      ],
      "stateMutability": "view",
      "type": "function",
      "constant": true
    },
    {
      "inputs": [],
      "name": "getAllDepositIds",
      "outputs": [
        {
          "internalType": "uint256[]",
          "name": "",
          "type": "uint256[]"
        }
      ],
      "stateMutability": "view",
      "type": "function",
      "constant": true
    },
    {
      "inputs": [
        {
          "internalType": "uint256",
          "name": "_id",
          "type": "uint256"
        }
      ],
      "name": "getDepositDetails",
      "outputs": [
        {
          "internalType": "address",
          "name": "",
          "type": "address"
        },
        {
          "internalType": "address",
          "name": "",
          "type": "address"
        },
        {
          "internalType": "uint256",
          "name": "",
          "type": "uint256"
        },
        {
          "internalType": "uint256",
          "name": "",
          "type": "uint256"
        },
        {
          "internalType": "bool",
          "name": "",
          "type": "bool"
        }
      ],
      "stateMutability": "view",
      "type": "function",
      "constant": true
    },
    {
      "inputs": [
        {
          "internalType": "address",
          "name": "_withdrawalAddress",
          "type": "address"
        }
      ],
      "name": "getDepositsByWithdrawalAddress",
      "outputs": [
        {
          "internalType": "uint256[]",
          "name": "",
          "type": "uint256[]"
        }
      ],
      "stateMutability": "view",
      "type": "function",
      "constant": true
    },
    {
      "inputs": [
        {
          "internalType": "address",
          "name": "_tokenAddress",
          "type": "address"
        }
      ],
      "name": "getDepositsByTokenAddress",
      "outputs": [
        {
          "internalType": "uint256[]",
          "name": "",
          "type": "uint256[]"
        }
      ],
      "stateMutability": "view",
      "type": "function",
      "constant": true
    },
    {
      "inputs": [],
      "name": "getCurrentEpochtime",
      "outputs": [
        {
          "internalType": "uint256",
          "name": "",
          "type": "uint256"
        }
      ],
      "stateMutability": "view",
      "type": "function",
      "constant": true
    }
  ],
  "bytecode": "0x608060405234801561001057600080fd5b5061001a3361001f565b61006f565b600080546001600160a01b038381166001600160a01b0319831681178455604051919092169283917f8be0079c531659141344cd1fd0a4f28419497f9722a3daafe3b4186f6b6457e09190a35050565b611e668061007e6000396000f3fe608060405234801561001057600080fd5b50600436106101005760003560e01c8063715018a611610097578063adad19bd11610066578063adad19bd1461028c578063c62a01681461029f578063df9d2138146102b2578063f2fde38b146102c557600080fd5b8063715018a6146101d157806386f65a22146101d9578063890db72f146101ec5780638da5cb5b1461027157600080fd5b8063347c80ba116100d3578063347c80ba146101695780636671e466146101b057806366ff7916146101b65780636ba03924146101c957600080fd5b80630bd59ad3146101055780630f98a9cc1461012e5780632311beb11461014357806333289a4614610156575b600080fd5b6101186101133660046119ba565b6102d8565b60405161012591906119d5565b60405180910390f35b61014161013c366004611a19565b610344565b005b610141610151366004611a5d565b61038a565b610141610164366004611a99565b6104ce565b6101a2610177366004611ab2565b6001600160a01b03918216600090815260066020908152604080832093909416825291909152205490565b604051908152602001610125565b426101a2565b6101416101c4366004611ae5565b610b9d565b610118611111565b610141611169565b6101186101e73660046119ba565b61119f565b61023c6101fa366004611a99565b6000908152600360208190526040909120805460018201546002830154938301546004909301546001600160a01b03928316959290911693929160ff90911690565b604080516001600160a01b0396871681529590941660208601529284019190915260608301521515608082015260a001610125565b6000546040516001600160a01b039091168152602001610125565b6101a261029a3660046119ba565b611209565b6101416102ad366004611b08565b61127a565b6101416102c0366004611b76565b611408565b6101416102d33660046119ba565b6114c8565b6001600160a01b03811660009081526004602090815260409182902080548351818402810184019094528084526060939283018282801561033857602002820191906000526020600020905b815481526020019060010190808311610324575b50505050509050919050565b6000546001600160a01b031633146103775760405162461bcd60e51b815260040161036e90611c21565b60405180910390fd5b61038384848484611563565b5050505050565b6000546001600160a01b031633146103b45760405162461bcd60e51b815260040161036e90611c21565b6001600160a01b0382166103da5760405162461bcd60e51b815260040161036e90611c56565b6001600160a01b0383166104005760405162461bcd60e51b815260040161036e90611c56565b60405163a9059cbb60e01b81526001600160a01b0383811660048301526024820183905284169063a9059cbb906044016020604051808303816000875af115801561044f573d6000803e3d6000fd5b505050506040513d601f19601f820116820180604052508101906104739190611c8d565b61047c57600080fd5b816001600160a01b0316836001600160a01b03167fd2f1b8bf858315f31ded5fd413a23dbf1fbdc2c2adf26a846c3d05a266233e37836040516104c191815260200190565b60405180910390a3505050565b600081815260036020819052604090912001544210156105245760405162461bcd60e51b8152602060048201526011602482015270151bdad95b9cc8185c99481b1bd8dad959607a1b604482015260640161036e565b60008181526003602052604090206004015460ff16156105565760405162461bcd60e51b815260040161036e90611caf565b6000818152600360205260409020600101546001600160a01b0316331461058f5760405162461bcd60e51b815260040161036e90611ce6565b6000818152600360205260408082208054600182015460029092015492516370a0823160e01b81523060048201526001600160a01b039182169491909216929184906370a0823190602401602060405180830381865afa1580156105f7573d6000803e3d6000fd5b505050506040513d601f19601f8201168201806040525081019061061b9190611d34565b9050818110156106b95760405163a9059cbb60e01b81526001600160a01b0384811660048301526024820183905285169063a9059cbb906044016020604051808303816000875af1158015610674573d6000803e3d6000fd5b505050506040513d601f19601f820116820180604052508101906106989190611c8d565b6106b45760405162461bcd60e51b815260040161036e90611d4d565b610748565b60405163a9059cbb60e01b81526001600160a01b0384811660048301526024820184905285169063a9059cbb906044016020604051808303816000875af1158015610708573d6000803e3d6000fd5b505050506040513d601f19601f8201168201806040525081019061072c9190611c8d565b6107485760405162461bcd60e51b815260040161036e90611d4d565b6000858152600360209081526040808320600401805460ff191660011790556001600160a01b03871683526006825280832033845290915290205461078d81846118cf565b6001600160a01b03808716600090815260066020908152604080832033845282528083209490945591871681526004909152908120548190816107d1600183611d9a565b67ffffffffffffffff8111156107e9576107e9611db1565b604051908082528060200260200182016040528015610812578160200160208202803683370190505b509050600092505b8183101561094d576001600160a01b038816600090815260046020526040902080548b91908590811061084f5761084f611dc7565b906000526020600020015414156108e8578293505b61086f600183611d9a565b8410156108e3576001600160a01b0388166000908152600460205260409020610899856001611ddd565b815481106108a9576108a9611dc7565b90600052602060002001548185815181106108c6576108c6611dc7565b6020908102919091010152836108db81611df5565b945050610864565b61094d565b6001600160a01b038816600090815260046020526040902080548490811061091257610912611dc7565b906000526020600020015481848151811061092f5761092f611dc7565b6020026020010181815250508261094581611df5565b93505061081a565b6001600160a01b038816600090815260046020908152604090912082516109769284019061193e565b506001600160a01b0389166000908152600560205260408120549061099c600183611d9a565b67ffffffffffffffff8111156109b4576109b4611db1565b6040519080825280602002602001820160405280156109dd578160200160208202803683370190505b509050600094505b81851015610b18576001600160a01b038b16600090815260056020526040902080548d919087908110610a1a57610a1a611dc7565b90600052602060002001541415610ab3578495505b610a3a600183611d9a565b861015610aae576001600160a01b038b166000908152600560205260409020610a64876001611ddd565b81548110610a7457610a74611dc7565b9060005260206000200154818781518110610a9157610a91611dc7565b602090810291909101015285610aa681611df5565b965050610a2f565b610b18565b6001600160a01b038b166000908152600560205260409020805486908110610add57610add611dc7565b9060005260206000200154818681518110610afa57610afa611dc7565b60200260200101818152505084610b1081611df5565b9550506109e5565b6001600160a01b038b1660009081526005602090815260409091208251610b419284019061193e565b50896001600160a01b03168b6001600160a01b03167f6337ed398c0e8467698c581374fdce4db14922df487b5a39483079f5f59b60a48b604051610b8791815260200190565b60405180910390a3505050505050505050505050565b6000546001600160a01b03163314610bc75760405162461bcd60e51b815260040161036e90611c21565b60008281526003602052604090206004015460ff1615610bf95760405162461bcd60e51b815260040161036e90611caf565b6001600160a01b038116610c1f5760405162461bcd60e51b815260040161036e90611c56565b6000828152600360205260409081902080546001820154600290920154925163a9059cbb60e01b81526001600160a01b03858116600483015260248201859052918216939190921691839063a9059cbb906044016020604051808303816000875af1158015610c92573d6000803e3d6000fd5b505050506040513d601f19601f82011682018060405250810190610cb69190611c8d565b610cd25760405162461bcd60e51b815260040161036e90611d4d565b6000858152600360209081526040808320600401805460ff191660011790556001600160a01b038616835260068252808320338452909152902054610d1781836118cf565b6001600160a01b0380861660009081526006602090815260408083203384528252808320949094559186168152600490915290812054819081610d5b600183611d9a565b67ffffffffffffffff811115610d7357610d73611db1565b604051908082528060200260200182016040528015610d9c578160200160208202803683370190505b509050600092505b81831015610ed7576001600160a01b038716600090815260046020526040902080548b919085908110610dd957610dd9611dc7565b90600052602060002001541415610e72578293505b610df9600183611d9a565b841015610e6d576001600160a01b0387166000908152600460205260409020610e23856001611ddd565b81548110610e3357610e33611dc7565b9060005260206000200154818581518110610e5057610e50611dc7565b602090810291909101015283610e6581611df5565b945050610dee565b610ed7565b6001600160a01b0387166000908152600460205260409020805484908110610e9c57610e9c611dc7565b9060005260206000200154818481518110610eb957610eb9611dc7565b60200260200101818152505082610ecf81611df5565b935050610da4565b6001600160a01b03871660009081526004602090815260409091208251610f009284019061193e565b506001600160a01b03881660009081526005602052604081205490610f26600183611d9a565b67ffffffffffffffff811115610f3e57610f3e611db1565b604051908082528060200260200182016040528015610f67578160200160208202803683370190505b509050600094505b818510156110a2576001600160a01b038a16600090815260056020526040902080548d919087908110610fa457610fa4611dc7565b9060005260206000200154141561103d578495505b610fc4600183611d9a565b861015611038576001600160a01b038a166000908152600560205260409020610fee876001611ddd565b81548110610ffe57610ffe611dc7565b906000526020600020015481878151811061101b5761101b611dc7565b60209081029190910101528561103081611df5565b965050610fb9565b6110a2565b6001600160a01b038a16600090815260056020526040902080548690811061106757611067611dc7565b906000526020600020015481868151811061108457611084611dc7565b6020026020010181815250508461109a81611df5565b955050610f6f565b6001600160a01b038a16600090815260056020908152604090912082516110cb9284019061193e565b50886001600160a01b03168a6001600160a01b03167f7e0e287190a11cfd8bf6bdc43c3fe73a13bf440aba855074740b37357a17d0f18a604051610b8791815260200190565b6060600280548060200260200160405190810160405280929190818152602001828054801561115f57602002820191906000526020600020905b81548152602001906001019080831161114b575b5050505050905090565b6000546001600160a01b031633146111935760405162461bcd60e51b815260040161036e90611c21565b61119d60006118e2565b565b6001600160a01b03811660009081526005602090815260409182902080548351818402810184019094528084526060939283018282801561033857602002820191906000526020600020908154815260200190600101908083116103245750505050509050919050565b6040516370a0823160e01b81523060048201526000906001600160a01b038316906370a0823190602401602060405180830381865afa158015611250573d6000803e3d6000fd5b505050506040513d601f19601f820116820180604052508101906112749190611d34565b92915050565b6000546001600160a01b031633146112a45760405162461bcd60e51b815260040161036e90611c21565b600082815260036020819052604090912001544210156112fa5760405162461bcd60e51b8152602060048201526011602482015270151bdad95b9cc8185c99481b1bd8dad959607a1b604482015260640161036e565b60008281526003602052604090206004015460ff161561132c5760405162461bcd60e51b815260040161036e90611caf565b6000828152600360205260409020600101546001600160a01b031633146113655760405162461bcd60e51b815260040161036e90611ce6565b4281116113b45760405162461bcd60e51b815260206004820152601d60248201527f556e6c6f636b2074696d65206d75737420626520696e20667574757265000000604482015260640161036e565b600082815260036020819052604091829020018290555182907fa3b231fbb516462c26b9b2de2c4ab9072ef38e6f324e8a0d3a5f28f420758d4c906113fc9084815260200190565b60405180910390a25050565b6000546001600160a01b031633146114325760405162461bcd60e51b815260040161036e90611c21565b60005b60ff81168611156114be576114ab8888888460ff1681811061145957611459611dc7565b9050602002013587878560ff1681811061147557611475611dc7565b905060200201602081019061148a91906119ba565b86868660ff1681811061149f5761149f611dc7565b90506020020135611563565b50806114b681611e10565b915050611435565b5050505050505050565b6000546001600160a01b031633146114f25760405162461bcd60e51b815260040161036e90611c21565b6001600160a01b0381166115575760405162461bcd60e51b815260206004820152602660248201527f4f776e61626c653a206e6577206f776e657220697320746865207a65726f206160448201526564647265737360d01b606482015260840161036e565b611560816118e2565b50565b60008084116115c05760405162461bcd60e51b8152602060048201526024808201527f546f6b656e7320616d6f756e74206d75737420626520677265617465722074686044820152630616e20360e41b606482015260840161036e565b6402540be40082106116305760405162461bcd60e51b815260206004820152603360248201527f556e69782074696d657374616d70206d75737420626520696e207365636f6e64604482015272732c206e6f74206d696c6c697365636f6e647360681b606482015260840161036e565b42821161167f5760405162461bcd60e51b815260206004820152601d60248201527f556e6c6f636b2074696d65206d75737420626520696e20667574757265000000604482015260640161036e565b6040516323b872dd60e01b8152336004820152306024820152604481018590526001600160a01b038616906323b872dd906064016020604051808303816000875af11580156116d2573d6000803e3d6000fd5b505050506040513d601f19601f820116820180604052508101906116f69190611c8d565b61174e5760405162461bcd60e51b815260206004820152602360248201527f4661696c656420746f207472616e7366657220746f6b656e7320746f206c6f6360448201526235b2b960e91b606482015260840161036e565b6001600160a01b0380861660009081526006602090815260408083209387168352929052205484906117809082611932565b6001600160a01b038088166000908152600660209081526040808320938916835292905290812091909155600180549091906117bb90611df5565b9182905550600081815260036020818152604080842080546001600160a01b03199081166001600160a01b038e8116918217845560018085018054909416918e1691821790935560028085018b90559684018c90556004938401805460ff1916905586548084019097557f405787fa12a823e0f2b7631cc41b3ba8828b3321ca811111fa75cd3aa3bb5ace9096018890558587529184528286208054808301825590875284872001879055818652600584528286208054808301825590875295849020909501869055935481518b815292830189905290820152929450917fa6782d3322abbfbe850e6d5c5c78e8e1df603ea07608bb9a62dd83f40d4feccc9060600160405180910390a350949350505050565b60006118db8284611d9a565b9392505050565b600080546001600160a01b038381166001600160a01b0319831681178455604051919092169283917f8be0079c531659141344cd1fd0a4f28419497f9722a3daafe3b4186f6b6457e09190a35050565b60006118db8284611ddd565b828054828255906000526020600020908101928215611979579160200282015b8281111561197957825182559160200191906001019061195e565b50611985929150611989565b5090565b5b80821115611985576000815560010161198a565b80356001600160a01b03811681146119b557600080fd5b919050565b6000602082840312156119cc57600080fd5b6118db8261199e565b6020808252825182820181905260009190848201906040850190845b81811015611a0d578351835292840192918401916001016119f1565b50909695505050505050565b60008060008060808587031215611a2f57600080fd5b611a388561199e565b935060208501359250611a4d6040860161199e565b9396929550929360600135925050565b600080600060608486031215611a7257600080fd5b611a7b8461199e565b9250611a896020850161199e565b9150604084013590509250925092565b600060208284031215611aab57600080fd5b5035919050565b60008060408385031215611ac557600080fd5b611ace8361199e565b9150611adc6020840161199e565b90509250929050565b60008060408385031215611af857600080fd5b82359150611adc6020840161199e565b60008060408385031215611b1b57600080fd5b50508035926020909101359150565b60008083601f840112611b3c57600080fd5b50813567ffffffffffffffff811115611b5457600080fd5b6020830191508360208260051b8501011115611b6f57600080fd5b9250929050565b60008060008060008060006080888a031215611b9157600080fd5b611b9a8861199e565b9650602088013567ffffffffffffffff80821115611bb757600080fd5b611bc38b838c01611b2a565b909850965060408a0135915080821115611bdc57600080fd5b611be88b838c01611b2a565b909650945060608a0135915080821115611c0157600080fd5b50611c0e8a828b01611b2a565b989b979a50959850939692959293505050565b6020808252818101527f4f776e61626c653a2063616c6c6572206973206e6f7420746865206f776e6572604082015260600190565b60208082526018908201527f496e76616c696420726563656976657220616464726573730000000000000000604082015260600190565b600060208284031215611c9f57600080fd5b815180151581146118db57600080fd5b60208082526018908201527f546f6b656e7320616c72656164792077697468647261776e0000000000000000604082015260600190565b6020808252602e908201527f43616e2077697468647261772066726f6d20746865206164647265737320757360408201526d656420666f72206c6f636b696e6760901b606082015260800190565b600060208284031215611d4657600080fd5b5051919050565b60208082526019908201527f4661696c656420746f207472616e7366657220746f6b656e7300000000000000604082015260600190565b634e487b7160e01b600052601160045260246000fd5b600082821015611dac57611dac611d84565b500390565b634e487b7160e01b600052604160045260246000fd5b634e487b7160e01b600052603260045260246000fd5b60008219821115611df057611df0611d84565b500190565b6000600019821415611e0957611e09611d84565b5060010190565b600060ff821660ff811415611e2757611e27611d84565b6001019291505056fea26469706673582212200261a5c7214c38c2568f7870eb0959d15dbd83596aed964b42fbc5f33c91033164736f6c634300080c0033",
  "immutableReferences": {},
  "source": "// SPDX-License-Identifier: UNLICENSED\npragma solidity ^0.8.12;\n\nimport \"@openzeppelin/contracts/access/Ownable.sol\";\nimport \"@openzeppelin/contracts/utils/math/SafeMath.sol\";\nimport \"./interfaces/IERC20.sol\";\n\ncontract Locker is Ownable {\n    using SafeMath for uint256;\n\n    struct Deposit {\n        address tokenAddress;\n        address withdrawalAddress;\n        uint256 tokenAmount;\n        uint256 unlockTime;\n        bool withdrawn;\n    }\n\n    uint256 private depositId;\n    uint256[] private allDepositIds;\n\n    mapping(uint256 => Deposit) private lockedToken;\n    mapping(address => uint256[]) private depositsByWithdrawalAddress;\n    mapping(address => uint256[]) private depositsByTokenAddress;\n    mapping(address => mapping(address => uint256)) private walletTokenBalance;\n\n    event TokensLocked(\n        address indexed tokenAddress,\n        address indexed sender,\n        uint256 amount,\n        uint256 unlockTime,\n        uint256 depositId\n    );\n    event TokensWithdrawn(address indexed tokenAddress, address indexed receiver, uint256 amount);\n    event EmergencyTokensWithdrawn(address indexed tokenAddress, address indexed receiver, uint256 amount);\n    event WithdrawSpecificToken(address indexed token, address indexed receiver, uint256 amount);\n    event Renewed(uint256 indexed id, uint256 unlockeTime);\n\n    function lockTokens(\n        address _tokenAddress,\n        uint256 _amount,\n        address _withdrawalAddress,\n        uint256 _unlockTime\n    ) external onlyOwner {\n        _lockTokens(_tokenAddress, _amount, _withdrawalAddress, _unlockTime);\n    }\n\n    function lockTokenMultiple(\n        address _tokenAddress,\n        uint256[] calldata _amounts,\n        address[] calldata _withdrawalAddresses,\n        uint256[] calldata _unlockTimes\n    ) external onlyOwner {\n        for (uint8 i = 0; i < _amounts.length; i++) {\n            _lockTokens(_tokenAddress, _amounts[i], _withdrawalAddresses[i], _unlockTimes[i]);\n        }\n    }\n\n    function _lockTokens(\n        address _tokenAddress,\n        uint256 _amount,\n        address _withdrawalAddress,\n        uint256 _unlockTime\n    ) internal returns (uint256 _id) {\n        require(_amount > 0, \"Tokens amount must be greater than 0\");\n        require(_unlockTime < 10000000000, \"Unix timestamp must be in seconds, not milliseconds\");\n        require(_unlockTime > block.timestamp, \"Unlock time must be in future\");\n        require(\n            IERC20(_tokenAddress).transferFrom(msg.sender, address(this), _amount),\n            \"Failed to transfer tokens to locker\"\n        );\n\n        uint256 lockAmount = _amount;\n\n        walletTokenBalance[_tokenAddress][_withdrawalAddress] = walletTokenBalance[_tokenAddress][_withdrawalAddress]\n            .add(_amount);\n\n        _id = ++depositId;\n\n        lockedToken[_id].tokenAddress = _tokenAddress;\n        lockedToken[_id].withdrawalAddress = _withdrawalAddress;\n        lockedToken[_id].tokenAmount = lockAmount;\n        lockedToken[_id].unlockTime = _unlockTime;\n        lockedToken[_id].withdrawn = false;\n\n        allDepositIds.push(_id);\n\n        depositsByWithdrawalAddress[_withdrawalAddress].push(_id);\n        depositsByTokenAddress[_tokenAddress].push(_id);\n\n        emit TokensLocked(_tokenAddress, _withdrawalAddress, _amount, _unlockTime, depositId);\n    }\n\n    function emergencyWithdrawTokens(uint256 _id, address _receiver) external onlyOwner {\n        require(!lockedToken[_id].withdrawn, \"Tokens already withdrawn\");\n        require(address(0) != _receiver, \"Invalid receiver address\");\n\n        address tokenAddress = lockedToken[_id].tokenAddress;\n        address withdrawalAddress = lockedToken[_id].withdrawalAddress;\n        uint256 amount = lockedToken[_id].tokenAmount;\n\n        require(IERC20(tokenAddress).transfer(_receiver, amount), \"Failed to transfer tokens\");\n\n        lockedToken[_id].withdrawn = true;\n\n        uint256 previousBalance = walletTokenBalance[tokenAddress][msg.sender];\n\n        walletTokenBalance[tokenAddress][msg.sender] = previousBalance.sub(amount);\n\n        uint256 i;\n        uint256 j;\n        uint256 byWLength = depositsByWithdrawalAddress[withdrawalAddress].length;\n        uint256[] memory newDepositsByWithdrawal = new uint256[](byWLength - 1);\n\n        for (j = 0; j < byWLength; j++) {\n            if (depositsByWithdrawalAddress[withdrawalAddress][j] == _id) {\n                for (i = j; i < byWLength - 1; i++) {\n                    newDepositsByWithdrawal[i] = depositsByWithdrawalAddress[withdrawalAddress][i + 1];\n                }\n                break;\n            } else {\n                newDepositsByWithdrawal[j] = depositsByWithdrawalAddress[withdrawalAddress][j];\n            }\n        }\n\n        depositsByWithdrawalAddress[withdrawalAddress] = newDepositsByWithdrawal;\n\n        uint256 byTLength = depositsByTokenAddress[tokenAddress].length;\n        uint256[] memory newDepositsByToken = new uint256[](byTLength - 1);\n\n        for (j = 0; j < byTLength; j++) {\n            if (depositsByTokenAddress[tokenAddress][j] == _id) {\n                for (i = j; i < byTLength - 1; i++) {\n                    newDepositsByToken[i] = depositsByTokenAddress[tokenAddress][i + 1];\n                }\n                break;\n            } else {\n                newDepositsByToken[j] = depositsByTokenAddress[tokenAddress][j];\n            }\n        }\n\n        depositsByTokenAddress[tokenAddress] = newDepositsByToken;\n\n        emit EmergencyTokensWithdrawn(tokenAddress, withdrawalAddress, amount);\n    }\n\n    function renewLock(uint256 _id, uint256 _unlockTime) external onlyOwner {\n        require(block.timestamp >= lockedToken[_id].unlockTime, \"Tokens are locked\");\n        require(!lockedToken[_id].withdrawn, \"Tokens already withdrawn\");\n        require(msg.sender == lockedToken[_id].withdrawalAddress, \"Can withdraw from the address used for locking\");\n        require(_unlockTime > block.timestamp, \"Unlock time must be in future\");\n\n        lockedToken[_id].unlockTime = _unlockTime;\n\n        emit Renewed(_id, _unlockTime);\n    }\n\n    function withdrawDeposit(uint256 _id) external {\n        require(block.timestamp >= lockedToken[_id].unlockTime, \"Tokens are locked\");\n        require(!lockedToken[_id].withdrawn, \"Tokens already withdrawn\");\n        require(msg.sender == lockedToken[_id].withdrawalAddress, \"Can withdraw from the address used for locking\");\n\n        address tokenAddress = lockedToken[_id].tokenAddress;\n        address withdrawalAddress = lockedToken[_id].withdrawalAddress;\n        uint256 amount = lockedToken[_id].tokenAmount;\n        uint256 balance = IERC20(tokenAddress).balanceOf(address(this));\n\n        if (balance < amount) {\n            require(IERC20(tokenAddress).transfer(withdrawalAddress, balance), \"Failed to transfer tokens\");\n        } else {\n            require(IERC20(tokenAddress).transfer(withdrawalAddress, amount), \"Failed to transfer tokens\");\n        }\n\n        lockedToken[_id].withdrawn = true;\n\n        uint256 previousBalance = walletTokenBalance[tokenAddress][msg.sender];\n\n        walletTokenBalance[tokenAddress][msg.sender] = previousBalance.sub(amount);\n\n        uint256 i;\n        uint256 j;\n        uint256 byWLength = depositsByWithdrawalAddress[withdrawalAddress].length;\n        uint256[] memory newDepositsByWithdrawal = new uint256[](byWLength - 1);\n\n        for (j = 0; j < byWLength; j++) {\n            if (depositsByWithdrawalAddress[withdrawalAddress][j] == _id) {\n                for (i = j; i < byWLength - 1; i++) {\n                    newDepositsByWithdrawal[i] = depositsByWithdrawalAddress[withdrawalAddress][i + 1];\n                }\n                break;\n            } else {\n                newDepositsByWithdrawal[j] = depositsByWithdrawalAddress[withdrawalAddress][j];\n            }\n        }\n\n        depositsByWithdrawalAddress[withdrawalAddress] = newDepositsByWithdrawal;\n\n        uint256 byTLength = depositsByTokenAddress[tokenAddress].length;\n        uint256[] memory newDepositsByToken = new uint256[](byTLength - 1);\n\n        for (j = 0; j < byTLength; j++) {\n            if (depositsByTokenAddress[tokenAddress][j] == _id) {\n                for (i = j; i < byTLength - 1; i++) {\n                    newDepositsByToken[i] = depositsByTokenAddress[tokenAddress][i + 1];\n                }\n                break;\n            } else {\n                newDepositsByToken[j] = depositsByTokenAddress[tokenAddress][j];\n            }\n        }\n\n        depositsByTokenAddress[tokenAddress] = newDepositsByToken;\n\n        emit TokensWithdrawn(tokenAddress, withdrawalAddress, amount);\n    }\n\n    function withdrawSpecificDeposit(\n        address token,\n        address receiver,\n        uint256 amount\n    ) external onlyOwner {\n        require(address(0) != receiver, \"Invalid receiver address\");\n        require(address(0) != token, \"Invalid receiver address\");\n        require(amount >= 0, \"Invaild amount\");\n        require(IERC20(token).transfer(receiver, amount));\n\n        emit WithdrawSpecificToken(token, receiver, amount);\n    }\n\n    function getTotalTokenBalance(address _tokenAddress) public view returns (uint256) {\n        return IERC20(_tokenAddress).balanceOf(address(this));\n    }\n\n    function getTokenBalanceByAddress(address _tokenAddress, address _walletAddress) public view returns (uint256) {\n        return walletTokenBalance[_tokenAddress][_walletAddress];\n    }\n\n    function getAllDepositIds() public view returns (uint256[] memory) {\n        return allDepositIds;\n    }\n\n    function getDepositDetails(uint256 _id)\n        public\n        view\n        returns (\n            address,\n            address,\n            uint256,\n            uint256,\n            bool\n        )\n    {\n        return (\n            lockedToken[_id].tokenAddress,\n            lockedToken[_id].withdrawalAddress,\n            lockedToken[_id].tokenAmount,\n            lockedToken[_id].unlockTime,\n            lockedToken[_id].withdrawn\n        );\n    }\n\n    function getDepositsByWithdrawalAddress(address _withdrawalAddress) public view returns (uint256[] memory) {\n        return depositsByWithdrawalAddress[_withdrawalAddress];\n    }\n\n    function getDepositsByTokenAddress(address _tokenAddress) public view returns (uint256[] memory) {\n        return depositsByTokenAddress[_tokenAddress];\n    }\n\n    function getCurrentEpochtime() public view returns (uint256) {\n        return block.timestamp;\n    }\n}\n",
  "sourcePath": "/home/dev/Desktop/projects/truffle/charity/contracts/Locker.sol",
  "compiler": {
    "name": "solc",
    "version": "0.8.12+commit.f00d7308.Emscripten.clang"
  },
  "schemaVersion": "3.4.5",
  "updatedAt": "2022-05-20T13:55:29.242Z",
  "networkType": "ethereum",
  "devdoc": {
    "kind": "dev",
    "methods": {
      "owner()": {
        "details": "Returns the address of the current owner."
      },
      "renounceOwnership()": {
        "details": "Leaves the contract without owner. It will not be possible to call `onlyOwner` functions anymore. Can only be called by the current owner. NOTE: Renouncing ownership will leave the contract without an owner, thereby removing any functionality that is only available to the owner."
      },
      "transferOwnership(address)": {
        "details": "Transfers ownership of the contract to a new account (`newOwner`). Can only be called by the current owner."
      }
    },
    "version": 1
  },
  "userdoc": {
    "kind": "user",
    "methods": {},
    "version": 1
  }
}