{
  "contractName": "Presale",
  "abi": [
    {
      "inputs": [
        {
          "internalType": "address",
          "name": "router",
          "type": "address"
        }
      ],
      "stateMutability": "nonpayable",
      "type": "constructor"
    },
    {
      "anonymous": false,
      "inputs": [
        {
          "indexed": false,
          "internalType": "bool",
          "name": "result",
          "type": "bool"
        },
        {
          "indexed": false,
          "internalType": "address",
          "name": "router",
          "type": "address"
        },
        {
          "indexed": false,
          "internalType": "uint256",
          "name": "amount",
          "type": "uint256"
        }
      ],
      "name": "Aproved",
      "type": "event"
    },
    {
      "anonymous": false,
      "inputs": [
        {
          "indexed": true,
          "internalType": "address",
          "name": "from",
          "type": "address"
        },
        {
          "indexed": false,
          "internalType": "address",
          "name": "presale",
          "type": "address"
        },
        {
          "indexed": false,
          "internalType": "address",
          "name": "router",
          "type": "address"
        },
        {
          "indexed": false,
          "internalType": "address",
          "name": "charityToken",
          "type": "address"
        }
      ],
      "name": "Deployed",
      "type": "event"
    },
    {
      "anonymous": false,
      "inputs": [
        {
          "indexed": false,
          "internalType": "uint256",
          "name": "devEth",
          "type": "uint256"
        },
        {
          "indexed": false,
          "internalType": "uint256",
          "name": "liquidityEth",
          "type": "uint256"
        },
        {
          "indexed": false,
          "internalType": "uint256",
          "name": "liquidityTokens",
          "type": "uint256"
        },
        {
          "indexed": false,
          "internalType": "uint256",
          "name": "saleRate",
          "type": "uint256"
        },
        {
          "indexed": false,
          "internalType": "uint256",
          "name": "poolRate",
          "type": "uint256"
        }
      ],
      "name": "Ended",
      "type": "event"
    },
    {
      "anonymous": false,
      "inputs": [
        {
          "indexed": true,
          "internalType": "address",
          "name": "previousOwner",
          "type": "address"
        },
        {
          "indexed": true,
          "internalType": "address",
          "name": "newOwner",
          "type": "address"
        }
      ],
      "name": "OwnershipTransferred",
      "type": "event"
    },
    {
      "anonymous": false,
      "inputs": [
        {
          "indexed": false,
          "internalType": "uint256",
          "name": "amountToken",
          "type": "uint256"
        },
        {
          "indexed": false,
          "internalType": "uint256",
          "name": "amountETH",
          "type": "uint256"
        },
        {
          "indexed": false,
          "internalType": "uint256",
          "name": "liquidity",
          "type": "uint256"
        },
        {
          "indexed": false,
          "internalType": "address",
          "name": "router",
          "type": "address"
        }
      ],
      "name": "Pool",
      "type": "event"
    },
    {
      "anonymous": false,
      "inputs": [
        {
          "indexed": true,
          "internalType": "address",
          "name": "from",
          "type": "address"
        },
        {
          "indexed": false,
          "internalType": "uint256",
          "name": "eth",
          "type": "uint256"
        },
        {
          "indexed": false,
          "internalType": "uint256",
          "name": "tokens",
          "type": "uint256"
        },
        {
          "indexed": false,
          "internalType": "uint256",
          "name": "total",
          "type": "uint256"
        }
      ],
      "name": "Received",
      "type": "event"
    },
    {
      "anonymous": false,
      "inputs": [
        {
          "indexed": false,
          "internalType": "uint256",
          "name": "rate",
          "type": "uint256"
        },
        {
          "indexed": false,
          "internalType": "uint256",
          "name": "minInvestment",
          "type": "uint256"
        },
        {
          "indexed": false,
          "internalType": "uint256",
          "name": "maxInvestment",
          "type": "uint256"
        },
        {
          "indexed": false,
          "internalType": "uint256",
          "name": "maxInvestmentTotal",
          "type": "uint256"
        },
        {
          "indexed": false,
          "internalType": "uint256",
          "name": "cap",
          "type": "uint256"
        },
        {
          "indexed": false,
          "internalType": "bool",
          "name": "isActive",
          "type": "bool"
        },
        {
          "indexed": true,
          "internalType": "address",
          "name": "devAddress",
          "type": "address"
        },
        {
          "indexed": false,
          "internalType": "string",
          "name": "presaleInfo",
          "type": "string"
        },
        {
          "indexed": false,
          "internalType": "uint256",
          "name": "unlockLiquidity",
          "type": "uint256"
        }
      ],
      "name": "Started",
      "type": "event"
    },
    {
      "anonymous": false,
      "inputs": [
        {
          "indexed": false,
          "internalType": "uint256",
          "name": "amount",
          "type": "uint256"
        }
      ],
      "name": "WithdrawDev",
      "type": "event"
    },
    {
      "anonymous": false,
      "inputs": [
        {
          "indexed": false,
          "internalType": "address",
          "name": "pair",
          "type": "address"
        },
        {
          "indexed": false,
          "internalType": "uint256",
          "name": "amount",
          "type": "uint256"
        }
      ],
      "name": "WithdrawLiquidity",
      "type": "event"
    },
    {
      "anonymous": false,
      "inputs": [
        {
          "indexed": false,
          "internalType": "uint256",
          "name": "amount",
          "type": "uint256"
        }
      ],
      "name": "WithdrawTokens",
      "type": "event"
    },
    {
      "inputs": [],
      "name": "cap",
      "outputs": [
        {
          "internalType": "uint256",
          "name": "",
          "type": "uint256"
        }
      ],
      "stateMutability": "view",
      "type": "function",
      "constant": true
    },
    {
      "inputs": [],
      "name": "charityToken",
      "outputs": [
        {
          "internalType": "contract CharityToken",
          "name": "",
          "type": "address"
        }
      ],
      "stateMutability": "view",
      "type": "function",
      "constant": true
    },
    {
      "inputs": [
        {
          "internalType": "address",
          "name": "",
          "type": "address"
        }
      ],
      "name": "investors",
      "outputs": [
        {
          "internalType": "uint256",
          "name": "",
          "type": "uint256"
        }
      ],
      "stateMutability": "view",
      "type": "function",
      "constant": true
    },
    {
      "inputs": [],
      "name": "maxInvestment",
      "outputs": [
        {
          "internalType": "uint256",
          "name": "",
          "type": "uint256"
        }
      ],
      "stateMutability": "view",
      "type": "function",
      "constant": true
    },
    {
      "inputs": [],
      "name": "maxInvestmentTotal",
      "outputs": [
        {
          "internalType": "uint256",
          "name": "",
          "type": "uint256"
        }
      ],
      "stateMutability": "view",
      "type": "function",
      "constant": true
    },
    {
      "inputs": [],
      "name": "minInvestment",
      "outputs": [
        {
          "internalType": "uint256",
          "name": "",
          "type": "uint256"
        }
      ],
      "stateMutability": "view",
      "type": "function",
      "constant": true
    },
    {
      "inputs": [],
      "name": "owner",
      "outputs": [
        {
          "internalType": "address",
          "name": "",
          "type": "address"
        }
      ],
      "stateMutability": "view",
      "type": "function",
      "constant": true
    },
    {
      "inputs": [],
      "name": "poolRate",
      "outputs": [
        {
          "internalType": "uint256",
          "name": "",
          "type": "uint256"
        }
      ],
      "stateMutability": "view",
      "type": "function",
      "constant": true
    },
    {
      "inputs": [],
      "name": "presaleInfo",
      "outputs": [
        {
          "internalType": "string",
          "name": "",
          "type": "string"
        }
      ],
      "stateMutability": "view",
      "type": "function",
      "constant": true
    },
    {
      "inputs": [],
      "name": "renounceOwnership",
      "outputs": [],
      "stateMutability": "nonpayable",
      "type": "function"
    },
    {
      "inputs": [],
      "name": "saleRate",
      "outputs": [
        {
          "internalType": "uint256",
          "name": "",
          "type": "uint256"
        }
      ],
      "stateMutability": "view",
      "type": "function",
      "constant": true
    },
    {
      "inputs": [
        {
          "internalType": "address",
          "name": "newOwner",
          "type": "address"
        }
      ],
      "name": "transferOwnership",
      "outputs": [],
      "stateMutability": "nonpayable",
      "type": "function"
    },
    {
      "inputs": [],
      "name": "uniswapV2Pair",
      "outputs": [
        {
          "internalType": "contract IUniswapV2Pair",
          "name": "",
          "type": "address"
        }
      ],
      "stateMutability": "view",
      "type": "function",
      "constant": true
    },
    {
      "inputs": [],
      "name": "uniswapV2Router",
      "outputs": [
        {
          "internalType": "contract IUniswapV2Router02",
          "name": "",
          "type": "address"
        }
      ],
      "stateMutability": "view",
      "type": "function",
      "constant": true
    },
    {
      "inputs": [],
      "name": "unlockLiquidity",
      "outputs": [
        {
          "internalType": "uint256",
          "name": "",
          "type": "uint256"
        }
      ],
      "stateMutability": "view",
      "type": "function",
      "constant": true
    },
    {
      "stateMutability": "payable",
      "type": "receive",
      "payable": true
    },
    {
      "inputs": [],
      "name": "isActive",
      "outputs": [
        {
          "internalType": "bool",
          "name": "",
          "type": "bool"
        }
      ],
      "stateMutability": "view",
      "type": "function",
      "constant": true
    },
    {
      "inputs": [
        {
          "internalType": "uint256",
          "name": "min",
          "type": "uint256"
        },
        {
          "internalType": "uint256",
          "name": "max",
          "type": "uint256"
        },
        {
          "internalType": "uint256",
          "name": "total",
          "type": "uint256"
        },
        {
          "internalType": "uint256",
          "name": "hardCap",
          "type": "uint256"
        },
        {
          "internalType": "uint256",
          "name": "tokensPerEth",
          "type": "uint256"
        },
        {
          "internalType": "uint256",
          "name": "unlock",
          "type": "uint256"
        },
        {
          "internalType": "string",
          "name": "info",
          "type": "string"
        },
        {
          "internalType": "address payable",
          "name": "dev",
          "type": "address"
        }
      ],
      "name": "startPresale",
      "outputs": [],
      "stateMutability": "nonpayable",
      "type": "function"
    },
    {
      "inputs": [],
      "name": "endPresale",
      "outputs": [],
      "stateMutability": "nonpayable",
      "type": "function"
    },
    {
      "inputs": [],
      "name": "addLiquidityToPool",
      "outputs": [],
      "stateMutability": "nonpayable",
      "type": "function"
    },
    {
      "inputs": [
        {
          "internalType": "uint256",
          "name": "taxFee",
          "type": "uint256"
        },
        {
          "internalType": "uint256",
          "name": "charityFee",
          "type": "uint256"
        }
      ],
      "name": "setFees",
      "outputs": [],
      "stateMutability": "nonpayable",
      "type": "function"
    },
    {
      "inputs": [],
      "name": "withdrawDevEth",
      "outputs": [],
      "stateMutability": "nonpayable",
      "type": "function"
    },
    {
      "inputs": [],
      "name": "withdrawLiquidity",
      "outputs": [],
      "stateMutability": "nonpayable",
      "type": "function"
    },
    {
      "inputs": [],
      "name": "withdrawTokens",
      "outputs": [],
      "stateMutability": "nonpayable",
      "type": "function"
    }
  ],
  "bytecode": "0x60806040526000600c819055600d819055600e55600f805464ffffffffff191690553480156200002e57600080fd5b5060405162004cd438038062004cd48339810160408190526200005191620001e8565b6200005c3362000157565b62000066620001a7565b600180546001600160a01b039283166001600160a01b031991821681179092556002805493851693909116831790556040516362db8f5b60e11b815260048101929092529063c5b71eb690602401600060405180830381600087803b158015620000cf57600080fd5b505af1158015620000e4573d6000803e3d6000fd5b50505050620000f86200015360201b60201c565b600254600154604080513081526001600160a01b039384166020820152918316908201529116907f6707255b2c5ca81220b2f3e408a269cb83baa6aa7e5e37aa1756883a6cdf06f19060600160405180910390a2506200021a565b3390565b600080546001600160a01b038381166001600160a01b0319831681178455604051919092169283917f8be0079c531659141344cd1fd0a4f28419497f9722a3daafe3b4186f6b6457e09190a35050565b6000604051620001b790620001da565b604051809103906000f080158015620001d4573d6000803e3d6000fd5b50905090565b61273d806200259783390190565b600060208284031215620001fb57600080fd5b81516001600160a01b03811681146200021357600080fd5b9392505050565b61236d806200022a6000396000f3fe6080604052600436106101435760003560e01c80636f7bc9be116100b65780638da5cb5b1161006f5780638da5cb5b14610603578063a43be57b14610621578063a9edaaa414610636578063c472badf1461064b578063c63710ea1461066b578063f2fde38b1461068157600080fd5b80636f7bc9be1461056b578063715018a6146105985780637ea382c1146105ad57806385096edc146105c25780638ac2c680146105d85780638d8f2adb146105ee57600080fd5b806324881ccb1161010857806324881ccb146104d25780632edf0869146104e7578063355274ea1461050957806340557cf11461051f57806349bd5a5e146105355780636b54acd91461055557600080fd5b80622e13161461040a57806301225213146104335780630b78f9c01461046b5780631694505e1461048d57806322f3e2d4146104ad57600080fd5b3661040557600f5460ff161515600114801561016157506005544711155b6101aa5760405162461bcd60e51b815260206004820152601560248201527450726573616c65206973206e6f742061637469766560581b60448201526064015b60405180910390fd5b346101f05760405162461bcd60e51b815260206004820152601660248201527506d73672e76616c75652063616e206e6f7420626520360541b60448201526064016101a1565b6007543411156102345760405162461bcd60e51b815260206004820152600f60248201526e0f881b585e125b9d995cdd1b595b9d608a1b60448201526064016101a1565b6006543410156102785760405162461bcd60e51b815260206004820152600f60248201526e0f081b5a5b925b9d995cdd1b595b9d608a1b60448201526064016101a1565b60085433600090815260116020526040902054610296903490611e41565b11156102e45760405162461bcd60e51b815260206004820152601b60248201527f4c696d6974206f66206d6178496e766573746d656e74546f74616c000000000060448201526064016101a1565b333b1580156102f257503332145b6102fb57600080fd5b60095460009061030b90346106a1565b3360009081526011602052604090205490915061032890346106b4565b336000818152601160209081526040918290208490558151348152908101859052808201939093525190917f02d08db2db312fc60b41a046c46a7772a6c2dcdca0c32a9d3423c6dcbde693e9919081900360600190a26001546001600160a01b031663a9059cbb336040516001600160e01b031960e084901b1681526001600160a01b039091166004820152602481018490526044016020604051808303816000875af11580156103dd573d6000803e3d6000fd5b505050506040513d601f19601f820116820180604052508101906104019190611e59565b5050005b600080fd5b34801561041657600080fd5b5061042060075481565b6040519081526020015b60405180910390f35b34801561043f57600080fd5b50600154610453906001600160a01b031681565b6040516001600160a01b03909116815260200161042a565b34801561047757600080fd5b5061048b610486366004611e7b565b6106c0565b005b34801561049957600080fd5b50600254610453906001600160a01b031681565b3480156104b957600080fd5b506104c26108c3565b604051901515815260200161042a565b3480156104de57600080fd5b5061048b6108e3565b3480156104f357600080fd5b506104fc610a21565b60405161042a9190611ecd565b34801561051557600080fd5b5061042060055481565b34801561052b57600080fd5b5061042060095481565b34801561054157600080fd5b50600354610453906001600160a01b031681565b34801561056157600080fd5b50610420600b5481565b34801561057757600080fd5b50610420610586366004611f15565b60116020526000908152604090205481565b3480156105a457600080fd5b5061048b610aaf565b3480156105b957600080fd5b5061048b610ae5565b3480156105ce57600080fd5b50610420600a5481565b3480156105e457600080fd5b5061042060065481565b3480156105fa57600080fd5b5061048b610dcc565b34801561060f57600080fd5b506000546001600160a01b0316610453565b34801561062d57600080fd5b5061048b610ff3565b34801561064257600080fd5b5061048b61128d565b34801561065757600080fd5b5061048b610666366004611f85565b611972565b34801561067757600080fd5b5061042060085481565b34801561068d57600080fd5b5061048b61069c366004611f15565b611c96565b60006106ad8284612069565b9392505050565b60006106ad8284611e41565b6000546001600160a01b031633146106ea5760405162461bcd60e51b81526004016101a190612088565b600f5462010000900460ff1615156001146107475760405162461bcd60e51b815260206004820152601b60248201527f4c6971756964697479206e6f7420616464656420696e20706f6f6c000000000060448201526064016101a1565b600182101580156107595750600a8211155b6107a55760405162461bcd60e51b815260206004820152601a60248201527f7461784665652073686f756c6420626520696e2031202d20313000000000000060448201526064016101a1565b600181101580156107b7575060058111155b6108035760405162461bcd60e51b815260206004820152601d60248201527f636861726974794665652073686f756c6420626520696e2031202d203500000060448201526064016101a1565b600154604051635880b87360e01b8152600481018490526001600160a01b0390911690635880b87390602401600060405180830381600087803b15801561084957600080fd5b505af115801561085d573d6000803e3d6000fd5b505060015460405163a24a8d0f60e01b8152600481018590526001600160a01b03909116925063a24a8d0f9150602401600060405180830381600087803b1580156108a757600080fd5b505af11580156108bb573d6000803e3d6000fd5b505050505050565b600f5460009060ff16151560011480156108de575060055447105b905090565b6000546001600160a01b0316331461090d5760405162461bcd60e51b81526004016101a190612088565b600f5462010000900460ff16151560011461096a5760405162461bcd60e51b815260206004820152601b60248201527f4c6971756964697479206e6f7420616464656420696e20706f6f6c000000000060448201526064016101a1565b600047116109b25760405162461bcd60e51b81526020600482015260156024820152740636f6e74726163742062616c616e6365206973203605c1b60448201526064016101a1565b6040514781527fcd3acd3c510b7f41adbef216a2b6482f9408489397025a93a64291906758fa909060200160405180910390a16004546040516001600160a01b03909116904780156108fc02916000818181858888f19350505050158015610a1e573d6000803e3d6000fd5b50565b60108054610a2e906120bd565b80601f0160208091040260200160405190810160405280929190818152602001828054610a5a906120bd565b8015610aa75780601f10610a7c57610100808354040283529160200191610aa7565b820191906000526020600020905b815481529060010190602001808311610a8a57829003601f168201915b505050505081565b6000546001600160a01b03163314610ad95760405162461bcd60e51b81526004016101a190612088565b610ae36000611d2a565b565b6000546001600160a01b03163314610b0f5760405162461bcd60e51b81526004016101a190612088565b42600b5410610b605760405162461bcd60e51b815260206004820152601b60248201527f6c6971756964697479206c6f636b207374696c6c20616374697665000000000060448201526064016101a1565b6003546040516370a0823160e01b81523060048201526000916001600160a01b0316906370a0823190602401602060405180830381865afa158015610ba9573d6000803e3d6000fd5b505050506040513d601f19601f82011682018060405250810190610bcd91906120f8565b11610c2e5760405162461bcd60e51b815260206004820152602b60248201527f756e69737761705632506169722e62616c616e63654f6628616464726573732860448201526a074686973292920697320360ac1b60648201526084016101a1565b6003546040516370a0823160e01b81523060048201527f8291c2165fb22f13d0ed7fc85f1f2ac23027102c70d95f9459c42a59e241eaa5916001600160a01b03169081906370a0823190602401602060405180830381865afa158015610c98573d6000803e3d6000fd5b505050506040513d601f19601f82011682018060405250810190610cbc91906120f8565b604080516001600160a01b03909316835260208301919091520160405180910390a16003546001600160a01b031663a9059cbb336003546040516370a0823160e01b81523060048201526001600160a01b03909116906370a08231906024015b602060405180830381865afa158015610d39573d6000803e3d6000fd5b505050506040513d601f19601f82011682018060405250810190610d5d91906120f8565b6040516001600160e01b031960e085901b1681526001600160a01b03909216600483015260248201526044016020604051808303816000875af1158015610da8573d6000803e3d6000fd5b505050506040513d601f19601f82011682018060405250810190610a1e9190611e59565b6000546001600160a01b03163314610df65760405162461bcd60e51b81526004016101a190612088565b42600b5410610e475760405162461bcd60e51b815260206004820152601b60248201527f6c6971756964697479206c6f636b207374696c6c20616374697665000000000060448201526064016101a1565b6001546040516370a0823160e01b81523060048201526000916001600160a01b0316906370a0823190602401602060405180830381865afa158015610e90573d6000803e3d6000fd5b505050506040513d601f19601f82011682018060405250810190610eb491906120f8565b11610f145760405162461bcd60e51b815260206004820152602a60248201527f63686172697479546f6b656e2e62616c616e63654f66286164647265737328746044820152690686973292920697320360b41b60648201526084016101a1565b6001546040516370a0823160e01b81523060048201527f162bc80c31f518736971e8d253cd7d159f565575de30db4d2f1a30c95b254377916001600160a01b0316906370a0823190602401602060405180830381865afa158015610f7c573d6000803e3d6000fd5b505050506040513d601f19601f82011682018060405250810190610fa091906120f8565b60405190815260200160405180910390a16001546001600160a01b031663a9059cbb336001546040516370a0823160e01b81523060048201526001600160a01b03909116906370a0823190602401610d1c565b6000546001600160a01b0316331461101d5760405162461bcd60e51b81526004016101a190612088565b600f5460ff16151560011461106c5760405162461bcd60e51b815260206004820152601560248201527450726573616c65206973206e6f742061637469766560581b60448201526064016101a1565b611077476005611d7a565b600c819055611087904790611d86565b600d556009546110a59061109c906004611d7a565b60095490611d86565b600a819055600d546110b791906106a1565b600e556001546040516370a0823160e01b81523060048201526001600160a01b03909116906370a0823190602401602060405180830381865afa158015611102573d6000803e3d6000fd5b505050506040513d601f19601f8201168201806040525081019061112691906120f8565b600e5411156111c3576001546040516370a0823160e01b81523060048201526001600160a01b03909116906370a0823190602401602060405180830381865afa158015611177573d6000803e3d6000fd5b505050506040513d601f19601f8201168201806040525081019061119b91906120f8565b600e819055600a546111bf916111b990670de0b6b3a76400006106a1565b90611d7a565b600d555b600954600a541080156111e55750600a54600d54600e546111e391611d7a565b145b6112205760405162461bcd60e51b815260206004820152600c60248201526b496e76616c6964207261746560a01b60448201526064016101a1565b600f805461ffff1916610100179055600c54600d54600e54600954600a5460408051958652602086019490945292840191909152606083015260808201527faae039095587fd63dd93ab51fe586bd88d23ae0d0b7ad1959ee8b5952f8aec519060a00160405180910390a1565b6000546001600160a01b031633146112b75760405162461bcd60e51b81526004016101a190612088565b600f5460ff6101009091041615156001146113145760405162461bcd60e51b815260206004820152601b60248201527f4552524f523a2050726573616c65206973206e6f7420656e646564000000000060448201526064016101a1565b600f5462010000900460ff161561137c5760405162461bcd60e51b815260206004820152602660248201527f4552524f523a204c697175696469747920616c726561647920616464656420696044820152651b881c1bdbdb60d21b60648201526084016101a1565b600154600254600e5460405163095ea7b360e01b81526001600160a01b039283166004820152602481019190915291169063095ea7b3906044016020604051808303816000875af11580156113d5573d6000803e3d6000fd5b505050506040513d601f19601f820116820180604052508101906113f99190611e59565b50600254600d54600154600e546001600160a01b039384169363f305d719939216906000803061142b426104b0611e41565b60405160e089901b6001600160e01b03191681526001600160a01b039687166004820152602481019590955260448501939093526064840191909152909216608482015260a481019190915260c40160606040518083038185885af1935050505080156114b5575060408051601f3d908101601f191682019092526114b291810190612111565b60015b61151a5760405162461bcd60e51b815260206004820152603060248201527f49556e69737761705632526f75746572303228292e6164644c6971756964697460448201526f1e5155120818d85b1b0819985a5b195960821b60648201526084016101a1565b60025460408051858152602081018590528082018490526001600160a01b039092166060830152517f767e9cea2a540c130ca1803d716b1b1a4c832bee4ec25e1a496854419564ca449181900360800190a15050506002546040805163c45a015560e01b815290516000926001600160a01b03169163c45a01559160048083019260209291908290030181865afa1580156115b9573d6000803e3d6000fd5b505050506040513d601f19601f820116820180604052508101906115dd919061213f565b600154600254604080516315ab88c960e31b815290516001600160a01b039485169463c9c6539694811693169163ad5c46489160048083019260209291908290030181865afa158015611634573d6000803e3d6000fd5b505050506040513d601f19601f82011682018060405250810190611658919061213f565b6040516001600160e01b031960e085901b1681526001600160a01b039283166004820152911660248201526044016020604051808303816000875af19250505080156116c1575060408051601f3d908101601f191682019092526116be9181019061213f565b60015b6118e5576116cd61215c565b806308c379a014156118d957506116e2612178565b806116ed57506118db565b60405175556e697377617056323a20504149525f45584953545360501b602082015260360160405160208183030381529060405280519060200120816040516020016117399190612202565b6040516020818303038152906040528051906020012014819061176f5760405162461bcd60e51b81526004016101a19190611ecd565b50600260009054906101000a90046001600160a01b03166001600160a01b031663c45a01556040518163ffffffff1660e01b8152600401602060405180830381865afa1580156117c3573d6000803e3d6000fd5b505050506040513d601f19601f820116820180604052508101906117e7919061213f565b600154600254604080516315ab88c960e31b815290516001600160a01b039485169463e6a4390594811693169163ad5c46489160048083019260209291908290030181865afa15801561183e573d6000803e3d6000fd5b505050506040513d601f19601f82011682018060405250810190611862919061213f565b6040516001600160e01b031960e085901b1681526001600160a01b03928316600482015291166024820152604401602060405180830381865afa1580156118ad573d6000803e3d6000fd5b505050506040513d601f19601f820116820180604052508101906118d1919061213f565b9150506118e8565b505b3d6000803e3d6000fd5b90505b600380546001600160a01b0319166001600160a01b0383811691821790925560015460405163421190a760e11b8152600481019290925290911690638423214e90602401600060405180830381600087803b15801561194657600080fd5b505af115801561195a573d6000803e3d6000fd5b5050600f805462ff0000191662010000179055505050565b6000546001600160a01b0316331461199c5760405162461bcd60e51b81526004016101a190612088565b600088116119de5760405162461bcd60e51b815260206004820152600f60248201526e06d696e206d757374206265203e203608c1b60448201526064016101a1565b87871015611a235760405162461bcd60e51b815260206004820152601260248201527136b0bc1036bab9ba103132901f1e9036b4b760711b60448201526064016101a1565b86861015611a6a5760405162461bcd60e51b81526020600482015260146024820152730e8dee8c2d840daeae6e840c4ca407c7a40dac2f60631b60448201526064016101a1565b60008511611aba5760405162461bcd60e51b815260206004820152601860248201527f68617264436170206d757374206265203e3d20746f74616c000000000000000060448201526064016101a1565b60008411611b0a5760405162461bcd60e51b815260206004820152601860248201527f746f6b656e73506572457468206d757374206265203e2030000000000000000060448201526064016101a1565b6001600160a01b038116611b605760405162461bcd60e51b815260206004820152601860248201527f64657620616464726573732063616e206e6f742062652030000000000000000060448201526064016101a1565b600f5460ff16151560011415611bb85760405162461bcd60e51b815260206004820152601760248201527f50726573616c6520616c7265616479207374617274656400000000000000000060448201526064016101a1565b60098490556006889055600787905560088690556005859055600f805460ff19166001179055600480546001600160a01b0319166001600160a01b0383161790558151611c0c906010906020850190611d92565b50611c1a8362093a80612069565b611c249042611e41565b600b819055600454600954600654600754600854600554600f546040516001600160a01b03909716977fd403175bf97edfd0b2ede248d118d8aceaf93bc5d71de812914aa12f22900a7997611c8497969594939260ff169160109161221e565b60405180910390a25050505050505050565b6000546001600160a01b03163314611cc05760405162461bcd60e51b81526004016101a190612088565b6001600160a01b038116611d255760405162461bcd60e51b815260206004820152602660248201527f4f776e61626c653a206e6577206f776e657220697320746865207a65726f206160448201526564647265737360d01b60648201526084016101a1565b610a1e815b600080546001600160a01b038381166001600160a01b0319831681178455604051919092169283917f8be0079c531659141344cd1fd0a4f28419497f9722a3daafe3b4186f6b6457e09190a35050565b60006106ad82846122fe565b60006106ad8284612320565b828054611d9e906120bd565b90600052602060002090601f016020900481019282611dc05760008555611e06565b82601f10611dd957805160ff1916838001178555611e06565b82800160010185558215611e06579182015b82811115611e06578251825591602001919060010190611deb565b50611e12929150611e16565b5090565b5b80821115611e125760008155600101611e17565b634e487b7160e01b600052601160045260246000fd5b60008219821115611e5457611e54611e2b565b500190565b600060208284031215611e6b57600080fd5b815180151581146106ad57600080fd5b60008060408385031215611e8e57600080fd5b50508035926020909101359150565b60005b83811015611eb8578181015183820152602001611ea0565b83811115611ec7576000848401525b50505050565b6020815260008251806020840152611eec816040850160208701611e9d565b601f01601f19169190910160400192915050565b6001600160a01b0381168114610a1e57600080fd5b600060208284031215611f2757600080fd5b81356106ad81611f00565b634e487b7160e01b600052604160045260246000fd5b601f8201601f1916810167ffffffffffffffff81118282101715611f6e57611f6e611f32565b6040525050565b8035611f8081611f00565b919050565b600080600080600080600080610100898b031215611fa257600080fd5b883597506020808a0135975060408a0135965060608a0135955060808a0135945060a08a0135935060c08a013567ffffffffffffffff80821115611fe557600080fd5b818c0191508c601f830112611ff957600080fd5b81358181111561200b5761200b611f32565b6040519150612023601f8201601f1916850183611f48565b8082528d8482850101111561203757600080fd5b808484018584013760008482840101525080945050505061205a60e08a01611f75565b90509295985092959890939650565b600081600019048311821515161561208357612083611e2b565b500290565b6020808252818101527f4f776e61626c653a2063616c6c6572206973206e6f7420746865206f776e6572604082015260600190565b600181811c908216806120d157607f821691505b602082108114156120f257634e487b7160e01b600052602260045260246000fd5b50919050565b60006020828403121561210a57600080fd5b5051919050565b60008060006060848603121561212657600080fd5b8351925060208401519150604084015190509250925092565b60006020828403121561215157600080fd5b81516106ad81611f00565b600060033d11156121755760046000803e5060005160e01c5b90565b600060443d10156121865790565b6040516003193d81016004833e81513d67ffffffffffffffff81602484011181841117156121b657505050505090565b82850191508151818111156121ce5750505050505090565b843d87010160208285010111156121e85750505050505090565b6121f760208286010187611f48565b509095945050505050565b60008251612214818460208701611e9d565b9190910192915050565b60006101008a835260208a8185015289604085015288606085015287608085015286151560a08501528160c08501526000865481600182811c91508083168061226857607f831692505b85831081141561228657634e487b7160e01b85526022600452602485fd5b958801828152602001958080156122a457600181146122b5576122e0565b60ff198516885286880195506122e0565b60008c81526020902060005b858110156122da5781548a8201529084019088016122c1565b89019650505b50505050508093505050508260e08301529998505050505050505050565b60008261231b57634e487b7160e01b600052601260045260246000fd5b500490565b60008282101561233257612332611e2b565b50039056fea26469706673582212205b009258ff8dce956c6f2d780a4d8bb4ade6b38e7aa6c67e3c289e3313013cbc64736f6c634300080c003360806040526b1a2c29b7db4c0eba24000000600a819055620000249060001962000270565b620000329060001962000293565b600b5560408051808201909152600c8082526b21b430b934ba3caa37b5b2b760a11b60209092019182526200006a91600d91620001ca565b506040805180820190915260048082526310d2105560e21b60209092019182526200009891600e91620001ca565b50600f805460ff19166012908117909155600060108190556011819055908190556013556014805461ffff191690556c0c9f2c9cd04674edea4000000060155569d3c21bcecceda1000000601655348015620000f357600080fd5b50620000ff336200017a565b600b543360008181526001602081815260408084209590955560048152848320805460ff1990811684179091553084528584208054909116909217909155600a549351938452919290917fddf252ad1be2c89b69c2b068fc378daa952ba7f163c4a11628f55a4df523b3ef910160405180910390a3620002f6565b600080546001600160a01b038381166001600160a01b0319831681178455604051919092169283917f8be0079c531659141344cd1fd0a4f28419497f9722a3daafe3b4186f6b6457e09190a35050565b828054620001d890620002b9565b90600052602060002090601f016020900481019282620001fc576000855562000247565b82601f106200021757805160ff191683800117855562000247565b8280016001018555821562000247579182015b82811115620002475782518255916020019190600101906200022a565b506200025592915062000259565b5090565b5b808211156200025557600081556001016200025a565b6000826200028e57634e487b7160e01b600052601260045260246000fd5b500690565b600082821015620002b457634e487b7160e01b600052601160045260246000fd5b500390565b600181811c90821680620002ce57607f821691505b60208210811415620002f057634e487b7160e01b600052602260045260246000fd5b50919050565b61243780620003066000396000f3fe6080604052600436106102345760003560e01c80636d1b229d1161012e578063a457c2d7116100ab578063f2cc0c181161006f578063f2cc0c18146106c0578063f2fde38b146106e0578063f429389014610700578063f815a84214610715578063f84354f11461072857600080fd5b8063a457c2d7146105e1578063a9059cbb14610601578063c5b71eb614610621578063cba0e99614610641578063dd62ed3e1461067a57600080fd5b80638da5cb5b116100f25780638da5cb5b1461054e57806395d89b411461056c578063964a696414610581578063a0c2dc1f146105a1578063a24a8d0f146105c157600080fd5b80636d1b229d146104ba5780636ddd1713146104da57806370a08231146104f9578063715018a6146105195780638423214e1461052e57600080fd5b8063313ce567116101bc5780634549b039116101805780634549b0391461040c57806349bd5a5e1461042c57806351bc3c851461044c5780635342acb4146104615780635880b8731461049a57600080fd5b8063313ce5671461037e57806339509351146103a05780633b124fe7146103c05780633bd5d173146103d657806340f8007a146103f657600080fd5b806318160ddd1161020357806318160ddd146102f25780631bbae6e01461030757806323b872dd146103295780632c4e722e146103495780632d8381191461035e57600080fd5b806306fdde0314610240578063095ea7b31461026b57806313114a9d1461029b5780631694505e146102ba57600080fd5b3661023b57005b600080fd5b34801561024c57600080fd5b50610255610748565b6040516102629190612079565b60405180910390f35b34801561027757600080fd5b5061028b6102863660046120e3565b6107da565b6040519015158152602001610262565b3480156102a757600080fd5b50600c545b604051908152602001610262565b3480156102c657600080fd5b506007546102da906001600160a01b031681565b6040516001600160a01b039091168152602001610262565b3480156102fe57600080fd5b50600a546102ac565b34801561031357600080fd5b5061032761032236600461210f565b6107f1565b005b34801561033557600080fd5b5061028b610344366004612128565b6108a0565b34801561035557600080fd5b506102ac610909565b34801561036a57600080fd5b506102ac61037936600461210f565b610918565b34801561038a57600080fd5b50600f5460405160ff9091168152602001610262565b3480156103ac57600080fd5b5061028b6103bb3660046120e3565b61099c565b3480156103cc57600080fd5b506102ac60105481565b3480156103e257600080fd5b506103276103f136600461210f565b6109d2565b34801561040257600080fd5b506102ac60115481565b34801561041857600080fd5b506102ac610427366004612169565b610abc565b34801561043857600080fd5b506008546102da906001600160a01b031681565b34801561045857600080fd5b50610327610b49565b34801561046d57600080fd5b5061028b61047c36600461219e565b6001600160a01b031660009081526004602052604090205460ff1690565b3480156104a657600080fd5b506103276104b536600461210f565b610b8c565b3480156104c657600080fd5b506103276104d536600461210f565b610c19565b3480156104e657600080fd5b5060145461028b90610100900460ff1681565b34801561050557600080fd5b506102ac61051436600461219e565b610c43565b34801561052557600080fd5b50610327610ca2565b34801561053a57600080fd5b5061032761054936600461219e565b610cd8565b34801561055a57600080fd5b506000546001600160a01b03166102da565b34801561057857600080fd5b50610255610d24565b34801561058d57600080fd5b5061032761059c36600461219e565b610d33565b3480156105ad57600080fd5b506009546102da906001600160a01b031681565b3480156105cd57600080fd5b506103276105dc36600461210f565b610d7f565b3480156105ed57600080fd5b5061028b6105fc3660046120e3565b610e0c565b34801561060d57600080fd5b5061028b61061c3660046120e3565b610e5b565b34801561062d57600080fd5b5061032761063c36600461219e565b610e68565b34801561064d57600080fd5b5061028b61065c36600461219e565b6001600160a01b031660009081526005602052604090205460ff1690565b34801561068657600080fd5b506102ac6106953660046121bb565b6001600160a01b03918216600090815260036020908152604080832093909416825291909152205490565b3480156106cc57600080fd5b506103276106db36600461219e565b610eb4565b3480156106ec57600080fd5b506103276106fb36600461219e565b611070565b34801561070c57600080fd5b50610327611108565b34801561072157600080fd5b50476102ac565b34801561073457600080fd5b5061032761074336600461219e565b61113c565b6060600d8054610757906121e9565b80601f0160208091040260200160405190810160405280929190818152602001828054610783906121e9565b80156107d05780601f106107a5576101008083540402835291602001916107d0565b820191906000526020600020905b8154815290600101906020018083116107b357829003601f168201915b5050505050905090565b60006107e73384846112f3565b5060015b92915050565b6000546001600160a01b031633146108245760405162461bcd60e51b815260040161081b90612224565b60405180910390fd5b69152d02c7e14af680000081101561089b5760405162461bcd60e51b815260206004820152603460248201527f6d61785478416d6f756e742073686f756c642062652067726561746572207468604482015273616e20313030303030303030303030303030653960601b606482015260840161081b565b601555565b60006108ad848484611417565b6108ff84336108fa856040518060600160405280602881526020016123b5602891396001600160a01b038a16600090815260036020908152604080832033845290915290205491906116b2565b6112f3565b5060019392505050565b60006109136116de565b905090565b6000600b5482111561097f5760405162461bcd60e51b815260206004820152602a60248201527f416d6f756e74206d757374206265206c657373207468616e20746f74616c207260448201526965666c656374696f6e7360b01b606482015260840161081b565b60006109896116de565b90506109958382611701565b9392505050565b3360008181526003602090815260408083206001600160a01b038716845290915281205490916107e79185906108fa908661170d565b3360008181526005602052604090205460ff1615610a475760405162461bcd60e51b815260206004820152602c60248201527f4578636c75646564206164647265737365732063616e6e6f742063616c6c207460448201526b3434b990333ab731ba34b7b760a11b606482015260840161081b565b6000610a5283611719565b505050506001600160a01b038416600090815260016020526040902054919250610a7e91905082611775565b6001600160a01b038316600090815260016020526040902055600b54610aa49082611775565b600b55600c54610ab4908461170d565b600c55505050565b6000600a54831115610b105760405162461bcd60e51b815260206004820152601f60248201527f416d6f756e74206d757374206265206c657373207468616e20737570706c7900604482015260640161081b565b81610b2f576000610b2084611719565b509395506107eb945050505050565b6000610b3a84611719565b509295506107eb945050505050565b6000546001600160a01b03163314610b735760405162461bcd60e51b815260040161081b90612224565b6000610b7e30610c43565b9050610b8981611781565b50565b6000546001600160a01b03163314610bb65760405162461bcd60e51b815260040161081b90612224565b60018110158015610bc85750600a8111155b610c145760405162461bcd60e51b815260206004820152601a60248201527f7461784665652073686f756c6420626520696e2031202d203130000000000000604482015260640161081b565b601055565b6000546001600160a01b03163314610b895760405162461bcd60e51b815260040161081b90612224565b6001600160a01b03811660009081526005602052604081205460ff1615610c8057506001600160a01b031660009081526002602052604090205490565b6001600160a01b0382166000908152600160205260409020546107eb90610918565b6000546001600160a01b03163314610ccc5760405162461bcd60e51b815260040161081b90612224565b610cd660006118f2565b565b6000546001600160a01b03163314610d025760405162461bcd60e51b815260040161081b90612224565b600880546001600160a01b0319166001600160a01b0392909216919091179055565b6060600e8054610757906121e9565b6000546001600160a01b03163314610d5d5760405162461bcd60e51b815260040161081b90612224565b600980546001600160a01b0319166001600160a01b0392909216919091179055565b6000546001600160a01b03163314610da95760405162461bcd60e51b815260040161081b90612224565b60018110158015610dbb575060058111155b610e075760405162461bcd60e51b815260206004820152601d60248201527f636861726974794665652073686f756c6420626520696e2031202d2035000000604482015260640161081b565b601155565b60006107e733846108fa856040518060600160405280602581526020016123dd602591393360009081526003602090815260408083206001600160a01b038d16845290915290205491906116b2565b60006107e7338484611417565b6000546001600160a01b03163314610e925760405162461bcd60e51b815260040161081b90612224565b600780546001600160a01b0319166001600160a01b0392909216919091179055565b6000546001600160a01b03163314610ede5760405162461bcd60e51b815260040161081b90612224565b6007546001600160a01b0382811691161415610f475760405162461bcd60e51b815260206004820152602260248201527f57652063616e206e6f74206578636c75646520556e697377617020726f757465604482015261391760f11b606482015260840161081b565b6001600160a01b03811660009081526005602052604090205460ff1615610fb05760405162461bcd60e51b815260206004820152601b60248201527f4163636f756e7420697320616c7265616479206578636c756465640000000000604482015260640161081b565b6001600160a01b0381166000908152600160205260409020541561100a576001600160a01b038116600090815260016020526040902054610ff090610918565b6001600160a01b0382166000908152600260205260409020555b6001600160a01b03166000818152600560205260408120805460ff191660019081179091556006805491820181559091527ff652222313e28459528d920b65115c16c04f3efc82aaedc97be59f3f377c0d3f0180546001600160a01b0319169091179055565b6000546001600160a01b0316331461109a5760405162461bcd60e51b815260040161081b90612224565b6001600160a01b0381166110ff5760405162461bcd60e51b815260206004820152602660248201527f4f776e61626c653a206e6577206f776e657220697320746865207a65726f206160448201526564647265737360d01b606482015260840161081b565b610b89816118f2565b6000546001600160a01b031633146111325760405162461bcd60e51b815260040161081b90612224565b47610b8981611942565b6000546001600160a01b031633146111665760405162461bcd60e51b815260040161081b90612224565b6001600160a01b03811660009081526005602052604090205460ff166111ce5760405162461bcd60e51b815260206004820152601b60248201527f4163636f756e7420697320616c7265616479206578636c756465640000000000604482015260640161081b565b60005b6006548110156112ef57816001600160a01b0316600682815481106111f8576111f8612259565b6000918252602090912001546001600160a01b031614156112dd576006805461122390600190612285565b8154811061123357611233612259565b600091825260209091200154600680546001600160a01b03909216918390811061125f5761125f612259565b600091825260208083209190910180546001600160a01b0319166001600160a01b039485161790559184168152600282526040808220829055600590925220805460ff1916905560068054806112b7576112b761229c565b600082815260209020810160001990810180546001600160a01b03191690550190555050565b806112e7816122b2565b9150506111d1565b5050565b6001600160a01b0383166113555760405162461bcd60e51b8152602060048201526024808201527f45524332303a20617070726f76652066726f6d20746865207a65726f206164646044820152637265737360e01b606482015260840161081b565b6001600160a01b0382166113b65760405162461bcd60e51b815260206004820152602260248201527f45524332303a20617070726f766520746f20746865207a65726f206164647265604482015261737360f01b606482015260840161081b565b6001600160a01b0383811660008181526003602090815260408083209487168084529482529182902085905590518481527f8c5be1e5ebec7d5bd14f71427d1e84f3dd0314c0f7b2291e5b200ac8c7c3b925910160405180910390a3505050565b6001600160a01b03831661147b5760405162461bcd60e51b815260206004820152602560248201527f45524332303a207472616e736665722066726f6d20746865207a65726f206164604482015264647265737360d81b606482015260840161081b565b6001600160a01b0382166114dd5760405162461bcd60e51b815260206004820152602360248201527f45524332303a207472616e7366657220746f20746865207a65726f206164647260448201526265737360e81b606482015260840161081b565b6000811161153f5760405162461bcd60e51b815260206004820152602960248201527f5472616e7366657220616d6f756e74206d7573742062652067726561746572206044820152687468616e207a65726f60b81b606482015260840161081b565b6000546001600160a01b0384811691161480159061156b57506000546001600160a01b03838116911614155b156115d3576015548111156115d35760405162461bcd60e51b815260206004820152602860248201527f5472616e7366657220616d6f756e74206578636565647320746865206d6178546044820152673c20b6b7bab73a1760c11b606482015260840161081b565b60006115de30610c43565b905060155481106115ee57506015545b601654601454908210159060ff161580156116105750601454610100900460ff165b80156116195750805b801561163357506008546001600160a01b03868116911614155b156116535761164182611781565b4780156116515761165147611942565b505b6001600160a01b03851660009081526004602052604090205460019060ff168061169557506001600160a01b03851660009081526004602052604090205460ff165b1561169e575060005b6116aa8686868461197c565b505050505050565b600081848411156116d65760405162461bcd60e51b815260040161081b9190612079565b505050900390565b60008060006116eb611af9565b90925090506116fa8282611701565b9250505090565b600061099582846122cd565b600061099582846122ef565b60008060008060008060008060006117368a601054601154611c7b565b92509250925060006117466116de565b905060008060006117588e8786611cd0565b919e509c509a509598509396509194505050505091939550919395565b60006109958284612285565b6014805460ff1916600117905560408051600280825260608201835260009260208301908036833701905050905030816000815181106117c3576117c3612259565b6001600160a01b03928316602091820292909201810191909152600754604080516315ab88c960e31b81529051919093169263ad5c46489260048083019391928290030181865afa15801561181c573d6000803e3d6000fd5b505050506040513d601f19601f820116820180604052508101906118409190612307565b8160018151811061185357611853612259565b6001600160a01b03928316602091820292909201015260075461187991309116846112f3565b60075460405163791ac94760e01b81526001600160a01b039091169063791ac947906118b2908590600090869030904290600401612324565b600060405180830381600087803b1580156118cc57600080fd5b505af11580156118e0573d6000803e3d6000fd5b50506014805460ff1916905550505050565b600080546001600160a01b038381166001600160a01b0319831681178455604051919092169283917f8be0079c531659141344cd1fd0a4f28419497f9722a3daafe3b4186f6b6457e09190a35050565b6009546040516001600160a01b039091169082156108fc029083906000818181858888f193505050501580156112ef573d6000803e3d6000fd5b8061198957611989611d0c565b6001600160a01b03841660009081526005602052604090205460ff1680156119ca57506001600160a01b03831660009081526005602052604090205460ff16155b156119df576119da848484611d3a565b611add565b6001600160a01b03841660009081526005602052604090205460ff16158015611a2057506001600160a01b03831660009081526005602052604090205460ff165b15611a30576119da848484611e60565b6001600160a01b03841660009081526005602052604090205460ff16158015611a7257506001600160a01b03831660009081526005602052604090205460ff16155b15611a82576119da848484611f09565b6001600160a01b03841660009081526005602052604090205460ff168015611ac257506001600160a01b03831660009081526005602052604090205460ff165b15611ad2576119da848484611f4d565b611add848484611f09565b80611af357611af3601254601055601354601155565b50505050565b600b54600a546000918291825b600654811015611c4b57826001600060068481548110611b2857611b28612259565b60009182526020808320909101546001600160a01b031683528201929092526040019020541180611b935750816002600060068481548110611b6c57611b6c612259565b60009182526020808320909101546001600160a01b03168352820192909252604001902054115b15611ba957600b54600a54945094505050509091565b611bef6001600060068481548110611bc357611bc3612259565b60009182526020808320909101546001600160a01b031683528201929092526040019020548490611775565b9250611c376002600060068481548110611c0b57611c0b612259565b60009182526020808320909101546001600160a01b031683528201929092526040019020548390611775565b915080611c43816122b2565b915050611b06565b50600a54600b54611c5b91611701565b821015611c7257600b54600a549350935050509091565b90939092509050565b6000808080611c956064611c8f8989611fc0565b90611701565b90506000611ca86064611c8f8a89611fc0565b90506000611cc082611cba8b86611775565b90611775565b9992985090965090945050505050565b6000808080611cdf8786611fc0565b90506000611ced8787611fc0565b90506000611cfb8383611775565b929992985090965090945050505050565b601054158015611d1c5750601154155b15611d2357565b601080546012556011805460135560009182905555565b600080600080600080611d4c87611719565b6001600160a01b038f16600090815260026020526040902054959b50939950919750955093509150611d7e9088611775565b6001600160a01b038a16600090815260026020908152604080832093909355600190522054611dad9087611775565b6001600160a01b03808b1660009081526001602052604080822093909355908a1681522054611ddc908661170d565b6001600160a01b038916600090815260016020526040902055611dfe81611fcc565b611e088483612055565b876001600160a01b0316896001600160a01b03167fddf252ad1be2c89b69c2b068fc378daa952ba7f163c4a11628f55a4df523b3ef85604051611e4d91815260200190565b60405180910390a3505050505050505050565b600080600080600080611e7287611719565b6001600160a01b038f16600090815260016020526040902054959b50939950919750955093509150611ea49087611775565b6001600160a01b03808b16600090815260016020908152604080832094909455918b16815260029091522054611eda908461170d565b6001600160a01b038916600090815260026020908152604080832093909355600190522054611ddc908661170d565b600080600080600080611f1b87611719565b6001600160a01b038f16600090815260016020526040902054959b50939950919750955093509150611dad9087611775565b600080600080600080611f5f87611719565b6001600160a01b038f16600090815260026020526040902054959b50939950919750955093509150611f919088611775565b6001600160a01b038a16600090815260026020908152604080832093909355600190522054611ea49087611775565b60006109958284612395565b6000611fd66116de565b90506000611fe48383611fc0565b30600090815260016020526040902054909150612001908261170d565b3060009081526001602090815260408083209390935560059052205460ff1615612050573060009081526002602052604090205461203f908461170d565b306000908152600260205260409020555b505050565b600b546120629083611775565b600b55600c54612072908261170d565b600c555050565b600060208083528351808285015260005b818110156120a65785810183015185820160400152820161208a565b818111156120b8576000604083870101525b50601f01601f1916929092016040019392505050565b6001600160a01b0381168114610b8957600080fd5b600080604083850312156120f657600080fd5b8235612101816120ce565b946020939093013593505050565b60006020828403121561212157600080fd5b5035919050565b60008060006060848603121561213d57600080fd5b8335612148816120ce565b92506020840135612158816120ce565b929592945050506040919091013590565b6000806040838503121561217c57600080fd5b823591506020830135801515811461219357600080fd5b809150509250929050565b6000602082840312156121b057600080fd5b8135610995816120ce565b600080604083850312156121ce57600080fd5b82356121d9816120ce565b91506020830135612193816120ce565b600181811c908216806121fd57607f821691505b6020821081141561221e57634e487b7160e01b600052602260045260246000fd5b50919050565b6020808252818101527f4f776e61626c653a2063616c6c6572206973206e6f7420746865206f776e6572604082015260600190565b634e487b7160e01b600052603260045260246000fd5b634e487b7160e01b600052601160045260246000fd5b6000828210156122975761229761226f565b500390565b634e487b7160e01b600052603160045260246000fd5b60006000198214156122c6576122c661226f565b5060010190565b6000826122ea57634e487b7160e01b600052601260045260246000fd5b500490565b600082198211156123025761230261226f565b500190565b60006020828403121561231957600080fd5b8151610995816120ce565b600060a082018783526020878185015260a0604085015281875180845260c086019150828901935060005b818110156123745784516001600160a01b03168352938301939183019160010161234f565b50506001600160a01b03969096166060850152505050608001529392505050565b60008160001904831182151516156123af576123af61226f565b50029056fe45524332303a207472616e7366657220616d6f756e74206578636565647320616c6c6f77616e636545524332303a2064656372656173656420616c6c6f77616e63652062656c6f77207a65726fa264697066735822122008710f0bcf74559ee455204abbe2c7a19d96caa5e64832446e84885544b4137964736f6c634300080c0033",
  "immutableReferences": {},
  "source": "// SPDX-License-Identifier: MIT\n\npragma solidity ^0.8.12;\n\nimport \"@openzeppelin/contracts/utils/math/SafeMath.sol\";\nimport \"@openzeppelin/contracts/utils/Address.sol\";\nimport \"@openzeppelin/contracts/access/Ownable.sol\";\n\nimport \"./interfaces/IUniswapV2Router02.sol\";\nimport \"./interfaces/IUniswapV2Factory.sol\";\nimport \"./interfaces/IUniswapV2Pair.sol\";\n\nimport \"./CharityToken.sol\";\n\ncontract Presale is Ownable {\n    using SafeMath for uint256;\n    using Address for address;\n\n    CharityToken public charityToken;\n    IUniswapV2Router02 public uniswapV2Router;\n    IUniswapV2Pair public uniswapV2Pair;\n    address payable private devAddress;\n    uint256 public cap;\n    uint256 public minInvestment;\n    uint256 public maxInvestment;\n    uint256 public maxInvestmentTotal;\n    uint256 public saleRate;\n    uint256 public poolRate;\n    uint256 public unlockLiquidity;\n    uint256 private devEth = 0;\n    uint256 private liquidityEth = 0;\n    uint256 private liquidityTokens = 0;\n    bool private _isActive = false;\n    bool private _isEnded = false;\n    bool private _isPool = false;\n    bool private _isDev = false;\n    bool private _isLocked = false;\n    string public presaleInfo;\n    mapping(address => uint256) public investors;\n\n    event Deployed(address indexed from, address presale, address router, address charityToken);\n    event Started(\n        uint256 rate,\n        uint256 minInvestment,\n        uint256 maxInvestment,\n        uint256 maxInvestmentTotal,\n        uint256 cap,\n        bool isActive,\n        address indexed devAddress,\n        string presaleInfo,\n        uint256 unlockLiquidity\n    );\n    event Received(address indexed from, uint256 eth, uint256 tokens, uint256 total);\n    event Ended(uint256 devEth, uint256 liquidityEth, uint256 liquidityTokens, uint256 saleRate, uint256 poolRate);\n    event Aproved(bool result, address router, uint256 amount);\n    event Pool(uint256 amountToken, uint256 amountETH, uint256 liquidity, address router);\n    event WithdrawDev(uint256 amount);\n    event WithdrawLiquidity(address pair, uint256 amount);\n    event WithdrawTokens(uint256 amount);\n\n    constructor(address router) {\n        charityToken = createTokenContract();\n        uniswapV2Router = IUniswapV2Router02(router);\n        charityToken._setUniswapV2Router(address(uniswapV2Router));\n\n        emit Deployed(_msgSender(), address(this), address(uniswapV2Router), address(charityToken));\n    }\n\n    function isActive() public view returns (bool) {\n        return _isActive == true && address(this).balance < cap;\n    }\n\n    function startPresale(\n        uint256 min,\n        uint256 max,\n        uint256 total,\n        uint256 hardCap,\n        uint256 tokensPerEth,\n        uint256 unlock,\n        string memory info,\n        address payable dev\n    ) public onlyOwner {\n        require(min > 0, \"min must be > 0\");\n        require(max >= min, \"max must be >= min\");\n        require(total >= max, \"total must be >= max\");\n        require(hardCap > 0, \"hardCap must be >= total\");\n        require(tokensPerEth > 0, \"tokensPerEth must be > 0\");\n        require(dev != address(0), \"dev address can not be 0\");\n        require(_isActive != true, \"Presale already started\");\n\n        saleRate = tokensPerEth;\n        minInvestment = min;\n        maxInvestment = max;\n        maxInvestmentTotal = total;\n        cap = hardCap;\n        _isActive = true;\n        devAddress = dev;\n        presaleInfo = info;\n        unlockLiquidity = block.timestamp + unlock * 1 weeks;\n\n        emit Started(\n            saleRate,\n            minInvestment,\n            maxInvestment,\n            maxInvestmentTotal,\n            cap,\n            _isActive,\n            devAddress,\n            presaleInfo,\n            unlockLiquidity\n        );\n    }\n\n    function createTokenContract() internal returns (CharityToken) {\n        return new CharityToken();\n    }\n\n    receive() external payable {\n        require(_isActive == true && address(this).balance <= cap, \"Presale is not active\");\n        require(msg.value != 0, \"msg.value can not be 0\");\n        require(msg.value <= maxInvestment, \"> maxInvestment\");\n        require(msg.value >= minInvestment, \"< minInvestment\");\n        require(investors[_msgSender()] + msg.value <= maxInvestmentTotal, \"Limit of maxInvestmentTotal\");\n        require(!address(_msgSender()).isContract() && _msgSender() == tx.origin);\n\n        uint256 tokens = saleRate.mul(msg.value);\n        investors[_msgSender()] = investors[_msgSender()].add(msg.value);\n        emit Received(_msgSender(), msg.value, tokens, investors[_msgSender()]);\n        charityToken.transfer(_msgSender(), tokens);\n    }\n\n    function endPresale() public onlyOwner {\n        require(_isActive == true, \"Presale is not active\");\n\n        //80%-20% liquidity-dev\n        devEth = address(this).balance.div(5);\n        liquidityEth = address(this).balance.sub(devEth);\n\n        //Set price 25% higher than presale\n        poolRate = saleRate.sub(saleRate.div(4));\n        liquidityTokens = poolRate.mul(liquidityEth);\n\n        if (liquidityTokens > charityToken.balanceOf(address(this))) {\n            liquidityTokens = charityToken.balanceOf(address(this));\n            liquidityEth = liquidityTokens.mul(10**18).div(poolRate);\n        }\n\n        require(poolRate < saleRate && liquidityTokens.div(liquidityEth) == poolRate, \"Invalid rate\");\n\n        _isActive = false;\n        _isEnded = true;\n\n        emit Ended(devEth, liquidityEth, liquidityTokens, saleRate, poolRate);\n    }\n\n    function addLiquidityToPool() public onlyOwner {\n        require(_isEnded == true, \"ERROR: Presale is not ended\");\n        require(_isPool == false, \"ERROR: Liquidity already added in pool\");\n\n        charityToken.approve(address(uniswapV2Router), liquidityTokens);\n\n        try\n            uniswapV2Router.addLiquidityETH{value: liquidityEth}(\n                address(charityToken),\n                liquidityTokens,\n                0,\n                0,\n                address(this),\n                block.timestamp + 20 minutes\n            )\n        returns (uint256 amountToken, uint256 amountETH, uint256 liquidity) {\n            emit Pool(amountToken, amountETH, liquidity, address(uniswapV2Router));\n        } catch {\n            revert(\"IUniswapV2Router02().addLiquidityETH call failed\");\n        }\n\n        address pair;\n\n        try\n            IUniswapV2Factory(uniswapV2Router.factory()).createPair(address(charityToken), uniswapV2Router.WETH())\n        returns (address newPair) {\n            pair = newPair;\n        } catch Error(string memory reason) {\n            require(\n                keccak256(abi.encodePacked(reason)) == keccak256(abi.encodePacked(\"UniswapV2: PAIR_EXISTS\")),\n                reason\n            );\n\n            pair = IUniswapV2Factory(uniswapV2Router.factory()).getPair(address(charityToken), uniswapV2Router.WETH());\n        }\n\n        uniswapV2Pair = IUniswapV2Pair(pair);\n        charityToken._setUniswapV2Pair(pair);\n\n        _isPool = true;\n    }\n\n    function setFees(uint256 taxFee, uint256 charityFee) public onlyOwner {\n        require(_isPool == true, \"Liquidity not added in pool\");\n        require(taxFee >= 1 && taxFee <= 10, \"taxFee should be in 1 - 10\");\n        require(charityFee >= 1 && charityFee <= 5, \"charityFee should be in 1 - 5\");\n\n        charityToken._setTaxFee(taxFee);\n        charityToken._setCharityFee(charityFee);\n    }\n\n    function withdrawDevEth() public onlyOwner {\n        require(_isPool == true, \"Liquidity not added in pool\");\n        require(address(this).balance > 0, \"contract balance is 0\");\n\n        emit WithdrawDev(address(this).balance);\n        devAddress.transfer(address(this).balance);\n    }\n\n    function withdrawLiquidity() public onlyOwner {\n        require(unlockLiquidity < block.timestamp, \"liquidity lock still active\");\n        require(uniswapV2Pair.balanceOf(address(this)) > 0, \"uniswapV2Pair.balanceOf(address(this)) is 0\");\n\n        emit WithdrawLiquidity(address(uniswapV2Pair), uniswapV2Pair.balanceOf(address(this)));\n        uniswapV2Pair.transfer(_msgSender(), uniswapV2Pair.balanceOf(address(this)));\n    }\n\n    function withdrawTokens() public onlyOwner {\n        require(unlockLiquidity < block.timestamp, \"liquidity lock still active\");\n        require(charityToken.balanceOf(address(this)) > 0, \"charityToken.balanceOf(address(this)) is 0\");\n\n        emit WithdrawTokens(charityToken.balanceOf(address(this)));\n        charityToken.transfer(_msgSender(), charityToken.balanceOf(address(this)));\n    }\n}\n",
  "sourcePath": "/home/dev/Desktop/projects/truffle/charity/contracts/Presale.sol",
  "compiler": {
    "name": "solc",
    "version": "0.8.12+commit.f00d7308.Emscripten.clang"
  },
  "schemaVersion": "3.4.5",
  "updatedAt": "2022-05-20T13:55:29.215Z",
  "networkType": "ethereum",
  "devdoc": {
    "kind": "dev",
    "methods": {
      "owner()": {
        "details": "Returns the address of the current owner."
      },
      "renounceOwnership()": {
        "details": "Leaves the contract without owner. It will not be possible to call `onlyOwner` functions anymore. Can only be called by the current owner. NOTE: Renouncing ownership will leave the contract without an owner, thereby removing any functionality that is only available to the owner."
      },
      "transferOwnership(address)": {
        "details": "Transfers ownership of the contract to a new account (`newOwner`). Can only be called by the current owner."
      }
    },
    "version": 1
  },
  "userdoc": {
    "kind": "user",
    "methods": {},
    "version": 1
  }
}