{
  "contractName": "StakingVault",
  "abi": [
    {
      "inputs": [
        {
          "internalType": "address",
          "name": "_charityToken",
          "type": "address"
        }
      ],
      "stateMutability": "nonpayable",
      "type": "constructor"
    },
    {
      "inputs": [],
      "name": "charityToken",
      "outputs": [
        {
          "internalType": "contract IERC20",
          "name": "",
          "type": "address"
        }
      ],
      "stateMutability": "view",
      "type": "function"
    },
    {
      "inputs": [],
      "name": "lastUpdateTime",
      "outputs": [
        {
          "internalType": "uint256",
          "name": "",
          "type": "uint256"
        }
      ],
      "stateMutability": "view",
      "type": "function"
    },
    {
      "inputs": [],
      "name": "rewardPerTokenStored",
      "outputs": [
        {
          "internalType": "uint256",
          "name": "",
          "type": "uint256"
        }
      ],
      "stateMutability": "view",
      "type": "function"
    },
    {
      "inputs": [],
      "name": "rewardRate",
      "outputs": [
        {
          "internalType": "uint256",
          "name": "",
          "type": "uint256"
        }
      ],
      "stateMutability": "view",
      "type": "function"
    },
    {
      "inputs": [
        {
          "internalType": "address",
          "name": "",
          "type": "address"
        }
      ],
      "name": "rewards",
      "outputs": [
        {
          "internalType": "uint256",
          "name": "",
          "type": "uint256"
        }
      ],
      "stateMutability": "view",
      "type": "function"
    },
    {
      "inputs": [
        {
          "internalType": "address",
          "name": "",
          "type": "address"
        }
      ],
      "name": "userRewardPerTokenPaid",
      "outputs": [
        {
          "internalType": "uint256",
          "name": "",
          "type": "uint256"
        }
      ],
      "stateMutability": "view",
      "type": "function"
    },
    {
      "inputs": [],
      "name": "rewardPerToken",
      "outputs": [
        {
          "internalType": "uint256",
          "name": "",
          "type": "uint256"
        }
      ],
      "stateMutability": "view",
      "type": "function"
    },
    {
      "inputs": [
        {
          "internalType": "address",
          "name": "account",
          "type": "address"
        }
      ],
      "name": "earned",
      "outputs": [
        {
          "internalType": "uint256",
          "name": "",
          "type": "uint256"
        }
      ],
      "stateMutability": "view",
      "type": "function"
    },
    {
      "inputs": [
        {
          "internalType": "uint256",
          "name": "_amount",
          "type": "uint256"
        }
      ],
      "name": "stake",
      "outputs": [],
      "stateMutability": "nonpayable",
      "type": "function"
    },
    {
      "inputs": [
        {
          "internalType": "uint256",
          "name": "_amount",
          "type": "uint256"
        }
      ],
      "name": "withdraw",
      "outputs": [],
      "stateMutability": "nonpayable",
      "type": "function"
    },
    {
      "inputs": [],
      "name": "getReward",
      "outputs": [],
      "stateMutability": "nonpayable",
      "type": "function"
    }
  ],
  "bytecode": "0x6080604052606460015534801561001557600080fd5b5060405161067038038061067083398101604081905261003491610059565b600080546001600160a01b0319166001600160a01b0392909216919091179055610089565b60006020828403121561006b57600080fd5b81516001600160a01b038116811461008257600080fd5b9392505050565b6105d8806100986000396000f3fe608060405234801561001057600080fd5b50600436106100a85760003560e01c80637b0a47ee116100715780637b0a47ee1461013b5780638b87634714610144578063a694fc3a14610164578063c8f33c9114610177578063cd3daf9d14610180578063df136d651461018857600080fd5b80628cc262146100ad57806301225213146100d35780630700037d146100fe5780632e1a7d4d1461011e5780633d18b91214610133575b600080fd5b6100c06100bb3660046104b1565b610191565b6040519081526020015b60405180910390f35b6000546100e6906001600160a01b031681565b6040516001600160a01b0390911681526020016100ca565b6100c061010c3660046104b1565b60056020526000908152604090205481565b61013161012c3660046104e1565b61020e565b005b61013161030b565b6100c060015481565b6100c06101523660046104b1565b60046020526000908152604090205481565b6101316101723660046104e1565b610394565b6100c060025481565b6100c0610453565b6100c060035481565b6001600160a01b0381166000908152600560209081526040808320546004909252822054670de0b6b3a7640000906101c7610453565b6101d19190610510565b6001600160a01b0385166000908152600760205260409020546101f49190610527565b6101fe9190610546565b6102089190610568565b92915050565b33610217610453565b6003554260025561022781610191565b6001600160a01b03821660009081526005602090815260408083209390935560035460049091529181209190915560068054849290610267908490610510565b9091555050336000908152600760205260408120805484929061028b908490610510565b909155505060005460405163a9059cbb60e01b8152336004820152602481018490526001600160a01b039091169063a9059cbb906044015b6020604051808303816000875af11580156102e2573d6000803e3d6000fd5b505050506040513d601f19601f820116820180604052508101906103069190610580565b505050565b33610314610453565b6003554260025561032481610191565b6001600160a01b0382811660009081526005602081815260408084209590955560035460048083528685209190915533808552929091528483208054908490559254945163a9059cbb60e01b8152908101919091526024810182905290929091169063a9059cbb906044016102c3565b3361039d610453565b600355426002556103ad81610191565b6001600160a01b038216600090815260056020908152604080832093909355600354600490915291812091909155600680548492906103ed908490610568565b90915550503360009081526007602052604081208054849290610411908490610568565b90915550506000546040516323b872dd60e01b8152336004820152306024820152604481018490526001600160a01b03909116906323b872dd906064016102c3565b6000600654600014156104665750600090565b6006546001546002546104799042610510565b6104839190610527565b61049590670de0b6b3a7640000610527565b61049f9190610546565b6003546104ac9190610568565b905090565b6000602082840312156104c357600080fd5b81356001600160a01b03811681146104da57600080fd5b9392505050565b6000602082840312156104f357600080fd5b5035919050565b634e487b7160e01b600052601160045260246000fd5b600082821015610522576105226104fa565b500390565b6000816000190483118215151615610541576105416104fa565b500290565b60008261056357634e487b7160e01b600052601260045260246000fd5b500490565b6000821982111561057b5761057b6104fa565b500190565b60006020828403121561059257600080fd5b815180151581146104da57600080fdfea26469706673582212206a2286994e76296921a8ad0fed98b6cc068cdc526155937df61a4a6548b70edf64736f6c634300080c0033",
  "immutableReferences": {},
  "source": "// SPDX-License-Identifier: MIT\n\npragma solidity ^0.8.12;\n\nimport \"@openzeppelin/contracts/utils/math/SafeMath.sol\";\nimport \"./interfaces/IERC20.sol\";\n\ncontract StakingVault {\n    using SafeMath for uint256;\n\n    IERC20 public charityToken;\n\n    uint256 public rewardRate = 100; //DVIR\n    uint256 public lastUpdateTime;\n    uint256 public rewardPerTokenStored;\n\n    mapping(address => uint256) public userRewardPerTokenPaid;\n    mapping(address => uint256) public rewards;\n\n    uint256 private _totalSupply;\n    mapping(address => uint256) private _balances;\n\n    constructor(address _charityToken) {\n        charityToken = IERC20(_charityToken);\n    }\n\n    function rewardPerToken() public view returns (uint256) {\n        if (_totalSupply == 0) {\n            return 0;\n        }\n        return rewardPerTokenStored + (((block.timestamp - lastUpdateTime) * rewardRate * 1e18) / _totalSupply);\n    }\n\n    function earned(address account) public view returns (uint256) {\n        return ((_balances[account] * (rewardPerToken() - userRewardPerTokenPaid[account])) / 1e18) + rewards[account];\n    }\n\n    modifier updateReward(address account) {\n        rewardPerTokenStored = rewardPerToken();\n        lastUpdateTime = block.timestamp;\n\n        rewards[account] = earned(account);\n        userRewardPerTokenPaid[account] = rewardPerTokenStored;\n        _;\n    }\n\n    function stake(uint256 _amount) external updateReward(msg.sender) {\n        _totalSupply += _amount;\n        _balances[msg.sender] += _amount;\n        charityToken.transferFrom(msg.sender, address(this), _amount);\n    }\n\n    function withdraw(uint256 _amount) external updateReward(msg.sender) {\n        _totalSupply -= _amount;\n        _balances[msg.sender] -= _amount;\n        charityToken.transfer(msg.sender, _amount);\n    }\n\n    function getReward() external updateReward(msg.sender) {\n        uint256 reward = rewards[msg.sender];\n        rewards[msg.sender] = 0;\n        charityToken.transfer(msg.sender, reward);\n    }\n}\n",
  "sourcePath": "/home/dev/Desktop/projects/truffle/charity/contracts/StakingVault.sol",
  "compiler": {
    "name": "solc",
    "version": "0.8.12+commit.f00d7308.Emscripten.clang"
  },
  "schemaVersion": "3.4.5",
  "updatedAt": "2022-05-17T16:43:08.850Z",
  "devdoc": {
    "kind": "dev",
    "methods": {},
    "version": 1
  },
  "userdoc": {
    "kind": "user",
    "methods": {},
    "version": 1
  }
}